{
  "contractName": "BitcoinProxyNoGas",
  "abi": [
    {
      "constant": false,
      "inputs": [
        {
          "name": "txBytes",
          "type": "bytes"
        },
        {
          "name": "txHash",
          "type": "uint256"
        }
      ],
      "name": "processTransaction",
      "outputs": [
        {
          "name": "",
          "type": "int256"
        }
      ],
      "payable": false,
      "stateMutability": "nonpayable",
      "type": "function"
    },
    {
      "constant": true,
      "inputs": [],
      "name": "btcrelay",
      "outputs": [
        {
          "name": "",
          "type": "address"
        }
      ],
      "payable": false,
      "stateMutability": "view",
      "type": "function"
    },
    {
      "constant": true,
      "inputs": [],
      "name": "tokensale",
      "outputs": [
        {
          "name": "",
          "type": "address"
        }
      ],
      "payable": false,
      "stateMutability": "view",
      "type": "function"
    },
    {
      "constant": true,
      "inputs": [],
      "name": "owner",
      "outputs": [
        {
          "name": "",
          "type": "address"
        }
      ],
      "payable": false,
      "stateMutability": "view",
      "type": "function"
    },
    {
      "constant": false,
      "inputs": [
        {
          "name": "investor",
          "type": "address"
        },
        {
          "name": "beneficiary",
          "type": "bytes20"
        }
      ],
      "name": "setWalletForInvestor",
      "outputs": [],
      "payable": false,
      "stateMutability": "nonpayable",
      "type": "function"
    },
    {
      "constant": true,
      "inputs": [
        {
          "name": "",
          "type": "bytes20"
        }
      ],
      "name": "wallets",
      "outputs": [
        {
          "name": "",
          "type": "address"
        }
      ],
      "payable": false,
      "stateMutability": "view",
      "type": "function"
    },
    {
      "constant": false,
      "inputs": [
        {
          "name": "newOwner",
          "type": "address"
        }
      ],
      "name": "transferOwnership",
      "outputs": [],
      "payable": false,
      "stateMutability": "nonpayable",
      "type": "function"
    },
    {
      "inputs": [
        {
          "name": "_btcrelay",
          "type": "address"
        },
        {
          "name": "_tokensale",
          "type": "address"
        }
      ],
      "payable": false,
      "stateMutability": "nonpayable",
      "type": "constructor"
    },
    {
      "anonymous": false,
      "inputs": [
        {
          "indexed": false,
          "name": "_value",
          "type": "address"
        }
      ],
      "name": "LogAddress",
      "type": "event"
    },
    {
      "anonymous": false,
      "inputs": [
        {
          "indexed": false,
          "name": "_value",
          "type": "bytes20"
        }
      ],
      "name": "LogBytes20",
      "type": "event"
    },
    {
      "anonymous": false,
      "inputs": [
        {
          "indexed": true,
          "name": "previousOwner",
          "type": "address"
        },
        {
          "indexed": true,
          "name": "newOwner",
          "type": "address"
        }
      ],
      "name": "OwnershipTransferred",
      "type": "event"
    }
  ],
  "bytecode": "0x6060604052341561000f57600080fd5b604051604080610a8983398101604052808051906020019091908051906020019091905050336000806101000a81548173ffffffffffffffffffffffffffffffffffffffff021916908373ffffffffffffffffffffffffffffffffffffffff16021790555081600160006101000a81548173ffffffffffffffffffffffffffffffffffffffff021916908373ffffffffffffffffffffffffffffffffffffffff16021790555080600260006101000a81548173ffffffffffffffffffffffffffffffffffffffff021916908373ffffffffffffffffffffffffffffffffffffffff1602179055505050610982806101076000396000f300606060405260043610610083576000357c0100000000000000000000000000000000000000000000000000000000900463ffffffff1680631c0b6367146100885780633192bed114610102578063704248ec146101575780638da5cb5b146101ac578063da86da4b14610201578063e65e19d514610252578063f2fde38b146102c4575b600080fd5b341561009357600080fd5b6100ec600480803590602001908201803590602001908080601f016020809104026020016040519081016040528093929190818152602001838380828437820191505050505050919080359060200190919050506102fd565b6040518082815260200191505060405180910390f35b341561010d57600080fd5b610115610618565b604051808273ffffffffffffffffffffffffffffffffffffffff1673ffffffffffffffffffffffffffffffffffffffff16815260200191505060405180910390f35b341561016257600080fd5b61016a61063e565b604051808273ffffffffffffffffffffffffffffffffffffffff1673ffffffffffffffffffffffffffffffffffffffff16815260200191505060405180910390f35b34156101b757600080fd5b6101bf610664565b604051808273ffffffffffffffffffffffffffffffffffffffff1673ffffffffffffffffffffffffffffffffffffffff16815260200191505060405180910390f35b341561020c57600080fd5b610250600480803573ffffffffffffffffffffffffffffffffffffffff169060200190919080356bffffffffffffffffffffffff1916906020019091905050610689565b005b341561025d57600080fd5b61028260048080356bffffffffffffffffffffffff19169060200190919050506107ce565b604051808273ffffffffffffffffffffffffffffffffffffffff1673ffffffffffffffffffffffffffffffffffffffff16815260200191505060405180910390f35b34156102cf57600080fd5b6102fb600480803573ffffffffffffffffffffffffffffffffffffffff16906020019091905050610801565b005b600080600080600080600160009054906101000a900473ffffffffffffffffffffffffffffffffffffffff1673ffffffffffffffffffffffffffffffffffffffff163373ffffffffffffffffffffffffffffffffffffffff1614151561036257600080fd5b600015156004600089815260200190815260200160002060009054906101000a900460ff16151514151561039557600080fd5b60016004600089815260200190815260200160002060006101000a81548160ff02191690831515021790555073__BTC___________________________________63e0303a2e896000604051608001526040518263ffffffff167c01000000000000000000000000000000000000000000000000000000000281526004018080602001828103825283818151815260200191508051906020019080838360005b83811015610450578082015181840152602081019050610435565b50505050905090810190601f16801561047d5780820380516001836020036101000a031916815260200191505b509250505060806040518083038186803b151561049957600080fd5b6102c65a03f415156104aa57600080fd5b50505060405180519060200180519060200180519060200180519050945094509450945060036000856bffffffffffffffffffffffff19166bffffffffffffffffffffffff1916815260200190815260200160002060009054906101000a900473ffffffffffffffffffffffffffffffffffffffff16905060008511151561053157600080fd5b600260009054906101000a900473ffffffffffffffffffffffffffffffffffffffff1673ffffffffffffffffffffffffffffffffffffffff16638cf292e482876040518363ffffffff167c0100000000000000000000000000000000000000000000000000000000028152600401808373ffffffffffffffffffffffffffffffffffffffff1673ffffffffffffffffffffffffffffffffffffffff16815260200182815260200192505050600060405180830381600087803b15156105f557600080fd5b6102c65a03f1151561060657600080fd5b50505060019550505050505092915050565b600160009054906101000a900473ffffffffffffffffffffffffffffffffffffffff1681565b600260009054906101000a900473ffffffffffffffffffffffffffffffffffffffff1681565b6000809054906101000a900473ffffffffffffffffffffffffffffffffffffffff1681565b6000809054906101000a900473ffffffffffffffffffffffffffffffffffffffff1673ffffffffffffffffffffffffffffffffffffffff163373ffffffffffffffffffffffffffffffffffffffff161415156106e457600080fd5b600060036000836bffffffffffffffffffffffff19166bffffffffffffffffffffffff1916815260200190815260200160002060009054906101000a900473ffffffffffffffffffffffffffffffffffffffff1673ffffffffffffffffffffffffffffffffffffffff1614151561075a57600080fd5b8160036000836bffffffffffffffffffffffff19166bffffffffffffffffffffffff1916815260200190815260200160002060006101000a81548173ffffffffffffffffffffffffffffffffffffffff021916908373ffffffffffffffffffffffffffffffffffffffff1602179055505050565b60036020528060005260406000206000915054906101000a900473ffffffffffffffffffffffffffffffffffffffff1681565b6000809054906101000a900473ffffffffffffffffffffffffffffffffffffffff1673ffffffffffffffffffffffffffffffffffffffff163373ffffffffffffffffffffffffffffffffffffffff1614151561085c57600080fd5b600073ffffffffffffffffffffffffffffffffffffffff168173ffffffffffffffffffffffffffffffffffffffff161415151561089857600080fd5b8073ffffffffffffffffffffffffffffffffffffffff166000809054906101000a900473ffffffffffffffffffffffffffffffffffffffff1673ffffffffffffffffffffffffffffffffffffffff167f8be0079c531659141344cd1fd0a4f28419497f9722a3daafe3b4186f6b6457e060405160405180910390a3806000806101000a81548173ffffffffffffffffffffffffffffffffffffffff021916908373ffffffffffffffffffffffffffffffffffffffff160217905550505600a165627a7a72305820a7c5ae8b30a5fd940fd17ad0e9c21eef55af81a0bdb08646241d412af3ab225d0029",
  "source": "pragma solidity ^0.4.11;\n\nimport 'zeppelin-solidity/contracts/ownership/Ownable.sol';\nimport './BTC.sol';\nimport './Tokensale.sol';\n\ncontract BitcoinProxyNoGas is Ownable {\n    address public btcrelay;\n\n    Tokensale public tokensale;\n\n    mapping(bytes20 => address) public wallets;\n\n    mapping(uint256 => bool) processedTransactions;\n\n    modifier onlyFromBtcRelay() {\n        require(msg.sender == btcrelay);\n        _;\n    }\n\n    event LogAddress(address _value);\n    event LogBytes20(bytes20 _value);\n\n    function BitcoinProxyNoGas(address _btcrelay, address _tokensale) {\n        btcrelay = _btcrelay;\n        tokensale = Tokensale(_tokensale);\n    }\n\n    function setWalletForInvestor(address investor, bytes20 beneficiary) onlyOwner {\n        require(wallets[beneficiary] == 0);\n        wallets[beneficiary] = investor;\n    }\n\n    function processTransaction(bytes txBytes, uint256 txHash)\n        onlyFromBtcRelay\n        returns (int256) {\n\n        require(processedTransactions[txHash] == false);\n        processedTransactions[txHash] = true;\n\n        var (amount, beneficiary, value2, address2) = BTC.getFirstTwoOutputs(txBytes);\n\n        address investor = wallets[beneficiary];\n\n        require(amount > 0);\n\n        tokensale.buyCoinsBTC(investor, amount);\n\n        return 1;\n    }\n}",
  "sourcePath": "/dapp/leap/contracts/BitcoinProxyNoGas.sol",
  "compiler": {
    "name": "solc",
    "version": "0.4.18+commit.9cf6e910.Emscripten.clang"
  },
  "schemaVersion": "1.0.1",
  "updatedAt": "2017-12-13T19:13:01.985Z"
}