{
  "contractName": "BitcoinProxy",
  "abi": [
    {
      "constant": true,
      "inputs": [
        {
          "name": "",
          "type": "uint256"
        }
      ],
      "name": "processed",
      "outputs": [
        {
          "name": "",
          "type": "bool"
        }
      ],
      "payable": false,
      "stateMutability": "view",
      "type": "function"
    },
    {
      "constant": false,
      "inputs": [
        {
          "name": "txBytes",
          "type": "bytes"
        },
        {
          "name": "txHash",
          "type": "uint256"
        }
      ],
      "name": "processTransaction",
      "outputs": [
        {
          "name": "",
          "type": "int256"
        }
      ],
      "payable": false,
      "stateMutability": "nonpayable",
      "type": "function"
    },
    {
      "constant": false,
      "inputs": [
        {
          "name": "amount",
          "type": "uint256"
        }
      ],
      "name": "promise",
      "outputs": [],
      "payable": false,
      "stateMutability": "nonpayable",
      "type": "function"
    },
    {
      "constant": false,
      "inputs": [
        {
          "name": "hash",
          "type": "uint256"
        }
      ],
      "name": "claim",
      "outputs": [],
      "payable": false,
      "stateMutability": "nonpayable",
      "type": "function"
    },
    {
      "constant": true,
      "inputs": [],
      "name": "tokensale",
      "outputs": [
        {
          "name": "",
          "type": "address"
        }
      ],
      "payable": false,
      "stateMutability": "view",
      "type": "function"
    },
    {
      "constant": true,
      "inputs": [],
      "name": "owner",
      "outputs": [
        {
          "name": "",
          "type": "address"
        }
      ],
      "payable": false,
      "stateMutability": "view",
      "type": "function"
    },
    {
      "constant": true,
      "inputs": [
        {
          "name": "",
          "type": "uint256"
        }
      ],
      "name": "claimed",
      "outputs": [
        {
          "name": "",
          "type": "address"
        }
      ],
      "payable": false,
      "stateMutability": "view",
      "type": "function"
    },
    {
      "constant": true,
      "inputs": [],
      "name": "btcRelay",
      "outputs": [
        {
          "name": "",
          "type": "address"
        }
      ],
      "payable": false,
      "stateMutability": "view",
      "type": "function"
    },
    {
      "constant": true,
      "inputs": [
        {
          "name": "",
          "type": "address"
        }
      ],
      "name": "promises",
      "outputs": [
        {
          "name": "",
          "type": "uint256"
        }
      ],
      "payable": false,
      "stateMutability": "view",
      "type": "function"
    },
    {
      "constant": false,
      "inputs": [
        {
          "name": "newOwner",
          "type": "address"
        }
      ],
      "name": "transferOwnership",
      "outputs": [],
      "payable": false,
      "stateMutability": "nonpayable",
      "type": "function"
    },
    {
      "inputs": [
        {
          "name": "_btcRelay",
          "type": "address"
        },
        {
          "name": "_btcWallet",
          "type": "bytes20"
        },
        {
          "name": "_tokensale",
          "type": "address"
        }
      ],
      "payable": false,
      "stateMutability": "nonpayable",
      "type": "constructor"
    },
    {
      "anonymous": false,
      "inputs": [
        {
          "indexed": true,
          "name": "previousOwner",
          "type": "address"
        },
        {
          "indexed": true,
          "name": "newOwner",
          "type": "address"
        }
      ],
      "name": "OwnershipTransferred",
      "type": "event"
    }
  ],
  "bytecode": "0x6060604052341561000f57600080fd5b604051606080610c7783398101604052808051906020019091908051906020019091908051906020019091905050336000806101000a81548173ffffffffffffffffffffffffffffffffffffffff021916908373ffffffffffffffffffffffffffffffffffffffff16021790555082600260006101000a81548173ffffffffffffffffffffffffffffffffffffffff021916908373ffffffffffffffffffffffffffffffffffffffff16021790555081600360006101000a81548173ffffffffffffffffffffffffffffffffffffffff02191690836c010000000000000000000000009004021790555080600160006101000a81548173ffffffffffffffffffffffffffffffffffffffff021916908373ffffffffffffffffffffffffffffffffffffffff160217905550505050610b2b8061014c6000396000f3006060604052600436106100a4576000357c0100000000000000000000000000000000000000000000000000000000900463ffffffff16806305a79e06146100a95780631c0b6367146100e4578063357b61411461015e578063379607f514610181578063704248ec146101a45780638da5cb5b146101f9578063dbe7e3bd1461024e578063debbc6eb146102b1578063e26efacc14610306578063f2fde38b14610353575b600080fd5b34156100b457600080fd5b6100ca600480803590602001909190505061038c565b604051808215151515815260200191505060405180910390f35b34156100ef57600080fd5b610148600480803590602001908201803590602001908080601f016020809104026020016040519081016040528093929190818152602001838380828437820191505050505050919080359060200190919050506103ac565b6040518082815260200191505060405180910390f35b341561016957600080fd5b61017f600480803590602001909190505061075d565b005b341561018c57600080fd5b6101a260048080359060200190919050506107f2565b005b34156101af57600080fd5b6101b76108ee565b604051808273ffffffffffffffffffffffffffffffffffffffff1673ffffffffffffffffffffffffffffffffffffffff16815260200191505060405180910390f35b341561020457600080fd5b61020c610914565b604051808273ffffffffffffffffffffffffffffffffffffffff1673ffffffffffffffffffffffffffffffffffffffff16815260200191505060405180910390f35b341561025957600080fd5b61026f6004808035906020019091905050610939565b604051808273ffffffffffffffffffffffffffffffffffffffff1673ffffffffffffffffffffffffffffffffffffffff16815260200191505060405180910390f35b34156102bc57600080fd5b6102c461096c565b604051808273ffffffffffffffffffffffffffffffffffffffff1673ffffffffffffffffffffffffffffffffffffffff16815260200191505060405180910390f35b341561031157600080fd5b61033d600480803573ffffffffffffffffffffffffffffffffffffffff16906020019091905050610992565b6040518082815260200191505060405180910390f35b341561035e57600080fd5b61038a600480803573ffffffffffffffffffffffffffffffffffffffff169060200190919050506109aa565b005b60066020528060005260406000206000915054906101000a900460ff1681565b600080600080600260009054906101000a900473ffffffffffffffffffffffffffffffffffffffff1673ffffffffffffffffffffffffffffffffffffffff163373ffffffffffffffffffffffffffffffffffffffff1614151561040e57600080fd5b84600015156006600083815260200190815260200160002060009054906101000a900460ff16151514151561044257600080fd5b6005600087815260200190815260200160002060009054906101000a900473ffffffffffffffffffffffffffffffffffffffff169350600460008573ffffffffffffffffffffffffffffffffffffffff1673ffffffffffffffffffffffffffffffffffffffff16815260200190815260200160002054925073__BTC___________________________________63e57ea16d88600360009054906101000a90046c0100000000000000000000000002866000604051602001526040518463ffffffff167c01000000000000000000000000000000000000000000000000000000000281526004018080602001846bffffffffffffffffffffffff19166bffffffffffffffffffffffff19168152602001838152602001828103825285818151815260200191508051906020019080838360005b83811015610590578082015181840152602081019050610575565b50505050905090810190601f1680156105bd5780820380516001836020036101000a031916815260200191505b5094505050505060206040518083038186803b15156105db57600080fd5b6102c65a03f415156105ec57600080fd5b505050604051805190509150811561074e5760016006600088815260200190815260200160002060006101000a81548160ff021916908315150217905550600460008573ffffffffffffffffffffffffffffffffffffffff1673ffffffffffffffffffffffffffffffffffffffff16815260200190815260200160002060009055600160009054906101000a900473ffffffffffffffffffffffffffffffffffffffff1673ffffffffffffffffffffffffffffffffffffffff16638cf292e485856040518363ffffffff167c0100000000000000000000000000000000000000000000000000000000028152600401808373ffffffffffffffffffffffffffffffffffffffff1673ffffffffffffffffffffffffffffffffffffffff16815260200182815260200192505050600060405180830381600087803b151561073157600080fd5b6102c65a03f1151561074257600080fd5b50505060019450610753565b600094505b5050505092915050565b6000600460003373ffffffffffffffffffffffffffffffffffffffff1673ffffffffffffffffffffffffffffffffffffffff168152602001908152602001600020541415156107ab57600080fd5b80600460003373ffffffffffffffffffffffffffffffffffffffff1673ffffffffffffffffffffffffffffffffffffffff1681526020019081526020016000208190555050565b6000600460003373ffffffffffffffffffffffffffffffffffffffff1673ffffffffffffffffffffffffffffffffffffffff168152602001908152602001600020541415151561084157600080fd5b60006005600083815260200190815260200160002060009054906101000a900473ffffffffffffffffffffffffffffffffffffffff1673ffffffffffffffffffffffffffffffffffffffff1614151561089957600080fd5b336005600083815260200190815260200160002060006101000a81548173ffffffffffffffffffffffffffffffffffffffff021916908373ffffffffffffffffffffffffffffffffffffffff16021790555050565b600160009054906101000a900473ffffffffffffffffffffffffffffffffffffffff1681565b6000809054906101000a900473ffffffffffffffffffffffffffffffffffffffff1681565b60056020528060005260406000206000915054906101000a900473ffffffffffffffffffffffffffffffffffffffff1681565b600260009054906101000a900473ffffffffffffffffffffffffffffffffffffffff1681565b60046020528060005260406000206000915090505481565b6000809054906101000a900473ffffffffffffffffffffffffffffffffffffffff1673ffffffffffffffffffffffffffffffffffffffff163373ffffffffffffffffffffffffffffffffffffffff16141515610a0557600080fd5b600073ffffffffffffffffffffffffffffffffffffffff168173ffffffffffffffffffffffffffffffffffffffff1614151515610a4157600080fd5b8073ffffffffffffffffffffffffffffffffffffffff166000809054906101000a900473ffffffffffffffffffffffffffffffffffffffff1673ffffffffffffffffffffffffffffffffffffffff167f8be0079c531659141344cd1fd0a4f28419497f9722a3daafe3b4186f6b6457e060405160405180910390a3806000806101000a81548173ffffffffffffffffffffffffffffffffffffffff021916908373ffffffffffffffffffffffffffffffffffffffff160217905550505600a165627a7a72305820145ae1023aee49357af7dedb3e413d0ed45d6828b18b3df4b376ccee13787df90029",
  "source": "pragma solidity ^0.4.11;\n\nimport 'zeppelin-solidity/contracts/ownership/Ownable.sol';\nimport './BTC.sol';\nimport './Tokensale.sol';\n\ncontract BitcoinProxy is Ownable {\n    Tokensale public tokensale;\n\n    address public btcRelay;\n    bytes20 btcWallet;\n\n    // investor should promise to pay X Satoshi before the payment\n    mapping(address => uint256) public promises;\n\n    // investor should claim fulfilled transaction with hash\n    mapping(uint256 => address) public claimed;\n\n    mapping(uint256 => bool) public processed;\n\n    function BitcoinProxy(address _btcRelay, bytes20 _btcWallet, address _tokensale) {\n        btcRelay = _btcRelay;\n        btcWallet = _btcWallet;\n        tokensale = Tokensale(_tokensale);\n    }\n\n    function processTransaction(bytes txBytes, uint256 txHash)\n        onlyFromRelay\n        notProcessed(txHash)\n        returns(int256) {\n\n        address beneficiary = claimed[txHash];\n        uint256 satoshiAmount = promises[beneficiary];\n\n        bool sent = BTC.checkValueSent(txBytes, btcWallet, satoshiAmount);\n\n        if(sent) {\n            processed[txHash] = true;\n            delete promises[beneficiary];\n            tokensale.buyCoinsBTC(beneficiary, satoshiAmount);\n            return 1;\n        } else {\n            return 0;\n        }\n    }\n\n    function promise(uint256 amount) public {\n        require(promises[msg.sender] == 0);\n\n        promises[msg.sender] = amount;\n    }\n\n    function claim(uint256 hash) public {\n        require(promises[msg.sender] != 0);\n        require(claimed[hash] == 0x0);\n\n        claimed[hash] = msg.sender;\n    }\n\n    modifier onlyFromRelay() {\n        require(msg.sender == btcRelay);\n        _;\n    }\n\n    modifier notProcessed(uint256 txHash) {\n        require(processed[txHash] == false);\n        _;\n    }\n}",
  "sourcePath": "/dapp/leap/contracts/BitcoinProxy.sol",
  "compiler": {
    "name": "solc",
    "version": "0.4.18+commit.9cf6e910.Emscripten.clang"
  },
  "schemaVersion": "1.0.1",
  "updatedAt": "2017-12-13T19:05:39.716Z"
}