{
  "contractName": "BitcoinRelayFake",
  "abi": [
    {
      "constant": false,
      "inputs": [
        {
          "name": "rawTransaction",
          "type": "bytes"
        },
        {
          "name": "transactionIndex",
          "type": "uint256"
        },
        {
          "name": "merkleSiblings",
          "type": "uint256[]"
        },
        {
          "name": "blockHash",
          "type": "uint256"
        },
        {
          "name": "contractAddress",
          "type": "uint256"
        }
      ],
      "name": "relayTx",
      "outputs": [
        {
          "name": "",
          "type": "int256"
        }
      ],
      "payable": false,
      "stateMutability": "nonpayable",
      "type": "function"
    }
  ],
  "bytecode": "0x6060604052341561000f57600080fd5b6102738061001e6000396000f300606060405260043610610041576000357c0100000000000000000000000000000000000000000000000000000000900463ffffffff1680639ff084da14610046575b600080fd5b341561005157600080fd5b6100fc600480803590602001908201803590602001908080601f0160208091040260200160405190810160405280939291908181526020018383808284378201915050505050509190803590602001909190803590602001908201803590602001908080602002602001604051908101604052809392919081815260200183836020028082843782019150505050505091908035906020019091908035906020019091905050610112565b6040518082815260200191505060405180910390f35b600080600085600081518110151561012657fe5b9060200190602002015184868901010191508390508073ffffffffffffffffffffffffffffffffffffffff16631c0b636789846000604051602001526040518363ffffffff167c01000000000000000000000000000000000000000000000000000000000281526004018080602001838152602001828103825284818151815260200191508051906020019080838360005b838110156101d35780820151818401526020810190506101b8565b50505050905090810190601f1680156102005780820380516001836020036101000a031916815260200191505b509350505050602060405180830381600087803b151561021f57600080fd5b6102c65a03f1151561023057600080fd5b5050506040518051905092505050959450505050505600a165627a7a72305820bf7768298af084d1e188d7312a233e941ac6f7424c405b7f6e816d4e557bccc20029",
  "source": "pragma solidity ^0.4.11;\n\nimport './BitcoinProxy.sol';\n\ncontract BitcoinRelayFake {\n    function relayTx(\n        bytes rawTransaction,\n        uint256 transactionIndex,\n        uint256[] merkleSiblings,\n        uint256 blockHash,\n        uint256 contractAddress\n    )\n        public returns(int256) {\n\n        uint256 txHash = transactionIndex + blockHash + contractAddress + merkleSiblings[0]; // just for testing\n        BitcoinProxy processor = BitcoinProxy(contractAddress);\n        return processor.processTransaction(rawTransaction, txHash);\n    }\n}",
  "sourcePath": "/dapp/leap/contracts/BitcoinRelayFake.sol",
  "compiler": {
    "name": "solc",
    "version": "0.4.18+commit.9cf6e910.Emscripten.clang"
  },
  "schemaVersion": "1.0.1",
  "updatedAt": "2017-12-13T19:05:39.717Z"
}