{
  "contractName": "BTC",
  "abi": [
    {
      "constant": false,
      "inputs": [
        {
          "name": "txBytes",
          "type": "bytes"
        },
        {
          "name": "pos",
          "type": "uint256"
        },
        {
          "name": "script_len",
          "type": "uint256"
        }
      ],
      "name": "parseOutputScript",
      "outputs": [
        {
          "name": "",
          "type": "bytes20"
        }
      ],
      "payable": false,
      "type": "function"
    },
    {
      "constant": false,
      "inputs": [
        {
          "name": "txBytes",
          "type": "bytes"
        },
        {
          "name": "pos",
          "type": "uint256"
        }
      ],
      "name": "parseVarInt",
      "outputs": [
        {
          "name": "",
          "type": "uint256"
        },
        {
          "name": "",
          "type": "uint256"
        }
      ],
      "payable": false,
      "type": "function"
    },
    {
      "constant": false,
      "inputs": [
        {
          "name": "txBytes",
          "type": "bytes"
        },
        {
          "name": "pos",
          "type": "uint256"
        },
        {
          "name": "script_len",
          "type": "uint256"
        }
      ],
      "name": "isP2PKH",
      "outputs": [
        {
          "name": "",
          "type": "bool"
        }
      ],
      "payable": false,
      "type": "function"
    },
    {
      "constant": false,
      "inputs": [
        {
          "name": "txBytes",
          "type": "bytes"
        },
        {
          "name": "pos",
          "type": "uint256"
        },
        {
          "name": "stop",
          "type": "uint256"
        }
      ],
      "name": "scanOutputs",
      "outputs": [
        {
          "name": "",
          "type": "uint256[]"
        },
        {
          "name": "",
          "type": "uint256[]"
        },
        {
          "name": "",
          "type": "uint256[]"
        },
        {
          "name": "",
          "type": "uint256"
        }
      ],
      "payable": false,
      "type": "function"
    },
    {
      "constant": false,
      "inputs": [
        {
          "name": "data",
          "type": "bytes"
        },
        {
          "name": "start",
          "type": "uint256"
        }
      ],
      "name": "sliceBytes20",
      "outputs": [
        {
          "name": "",
          "type": "bytes20"
        }
      ],
      "payable": false,
      "type": "function"
    },
    {
      "constant": false,
      "inputs": [
        {
          "name": "txBytes",
          "type": "bytes"
        },
        {
          "name": "pos",
          "type": "uint256"
        },
        {
          "name": "script_len",
          "type": "uint256"
        }
      ],
      "name": "isP2SH",
      "outputs": [
        {
          "name": "",
          "type": "bool"
        }
      ],
      "payable": false,
      "type": "function"
    },
    {
      "constant": false,
      "inputs": [
        {
          "name": "data",
          "type": "bytes"
        },
        {
          "name": "pos",
          "type": "uint256"
        },
        {
          "name": "bits",
          "type": "uint256"
        }
      ],
      "name": "getBytesLE",
      "outputs": [
        {
          "name": "",
          "type": "uint256"
        }
      ],
      "payable": false,
      "type": "function"
    },
    {
      "constant": false,
      "inputs": [
        {
          "name": "txBytes",
          "type": "bytes"
        }
      ],
      "name": "getFirstTwoOutputs",
      "outputs": [
        {
          "name": "",
          "type": "uint256"
        },
        {
          "name": "",
          "type": "bytes20"
        },
        {
          "name": "",
          "type": "uint256"
        },
        {
          "name": "",
          "type": "bytes20"
        }
      ],
      "payable": false,
      "type": "function"
    },
    {
      "constant": false,
      "inputs": [
        {
          "name": "txBytes",
          "type": "bytes"
        },
        {
          "name": "pos",
          "type": "uint256"
        },
        {
          "name": "stop",
          "type": "uint256"
        }
      ],
      "name": "scanInputs",
      "outputs": [
        {
          "name": "",
          "type": "uint256[]"
        },
        {
          "name": "",
          "type": "uint256"
        }
      ],
      "payable": false,
      "type": "function"
    },
    {
      "constant": false,
      "inputs": [
        {
          "name": "txBytes",
          "type": "bytes"
        },
        {
          "name": "btcAddress",
          "type": "bytes20"
        },
        {
          "name": "value",
          "type": "uint256"
        }
      ],
      "name": "checkValueSent",
      "outputs": [
        {
          "name": "",
          "type": "bool"
        }
      ],
      "payable": false,
      "type": "function"
    }
  ],
  "bytecode": "0x6060604052341561000f57600080fd5b611cf68061001e6000396000f3006060604052600436106100a4576000357c0100000000000000000000000000000000000000000000000000000000900463ffffffff1680630d63fdbe146100a95780634d7dcfbd1461013f5780638c115322146101b557806397a4202214610231578063cba66e1414610381578063d5c469f81461040e578063d5c9712f1461048a578063e0303a2e14610502578063e0a802ba146105b9578063e57ea16d14610679575b600080fd5b61010b600480803590602001908201803590602001908080601f01602080910402602001604051908101604052809392919081815260200183838082843782019150505050505091908035906020019091908035906020019091905050610704565b60405180826bffffffffffffffffffffffff19166bffffffffffffffffffffffff1916815260200191505060405180910390f35b610198600480803590602001908201803590602001908080601f01602080910402602001604051908101604052809392919081815260200183838082843782019150505050505091908035906020019091905050610756565b604051808381526020018281526020019250505060405180910390f35b610217600480803590602001908201803590602001908080601f01602080910402602001604051908101604052809392919081815260200183838082843782019150505050505091908035906020019091908035906020019091905050610874565b604051808215151515815260200191505060405180910390f35b610293600480803590602001908201803590602001908080601f01602080910402602001604051908101604052809392919081815260200183838082843782019150505050505091908035906020019091908035906020019091905050610bd7565b60405180806020018060200180602001858152602001848103845288818151815260200191508051906020019060200280838360005b838110156102e45780820151818401526020810190506102c9565b50505050905001848103835287818151815260200191508051906020019060200280838360005b8381101561032657808201518184015260208101905061030b565b50505050905001848103825286818151815260200191508051906020019060200280838360005b8381101561036857808201518184015260208101905061034d565b5050505090500197505050505050505060405180910390f35b6103da600480803590602001908201803590602001908080601f01602080910402602001604051908101604052809392919081815260200183838082843782019150505050505091908035906020019091905050610d64565b60405180826bffffffffffffffffffffffff19166bffffffffffffffffffffffff1916815260200191505060405180910390f35b610470600480803590602001908201803590602001908080601f01602080910402602001604051908101604052809392919081815260200183838082843782019150505050505091908035906020019091908035906020019091905050610e87565b604051808215151515815260200191505060405180910390f35b6104ec600480803590602001908201803590602001908080601f01602080910402602001604051908101604052809392919081815260200183838082843782019150505050505091908035906020019091908035906020019091905050611097565b6040518082815260200191505060405180910390f35b610552600480803590602001908201803590602001908080601f016020809104026020016040519081016040528093929190818152602001838380828437820191505050505050919050506118ac565b60405180858152602001846bffffffffffffffffffffffff19166bffffffffffffffffffffffff19168152602001838152602001826bffffffffffffffffffffffff19166bffffffffffffffffffffffff1916815260200194505050505060405180910390f35b61061b600480803590602001908201803590602001908080601f01602080910402602001604051908101604052809392919081815260200183838082843782019150505050505091908035906020019091908035906020019091905050611acb565b6040518080602001838152602001828103825284818151815260200191508051906020019060200280838360005b83811015610664578082015181840152602081019050610649565b50505050905001935050505060405180910390f35b6106ea600480803590602001908201803590602001908080601f016020809104026020016040519081016040528093929190818152602001838380828437820191505050505050919080356bffffffffffffffffffffffff1916906020019091908035906020019091905050611ba5565b604051808215151515815260200191505060405180910390f35b6000610711848484610874565b1561072a576107238460038501610d64565b905061074f565b610735848484610e87565b1561074e576107478460028501610d64565b905061074f565b5b9392505050565b6000806000848481518110151561076957fe5b9060200101517f010000000000000000000000000000000000000000000000000000000000000090047f0100000000000000000000000000000000000000000000000000000000000000027f01000000000000000000000000000000000000000000000000000000000000009004905060018401935060fd8160ff1610156107fc5780848160ff1691509250925061086c565b60fd8160ff1614156108215761081485856010611097565b600285019250925061086c565b60fe8160ff1614156108465761083985856020611097565b600485019250925061086c565b60ff8160ff16141561086b5761085e85856040611097565b600885019250925061086c565b5b509250929050565b6000601982148015610922575060767f01000000000000000000000000000000000000000000000000000000000000000284848151811015156108b357fe5b9060200101517f010000000000000000000000000000000000000000000000000000000000000090047f0100000000000000000000000000000000000000000000000000000000000000027effffffffffffffffffffffffffffffffffffffffffffffffffffffffffffff1916145b80156109cd575060a97f010000000000000000000000000000000000000000000000000000000000000002846001850181518110151561095e57fe5b9060200101517f010000000000000000000000000000000000000000000000000000000000000090047f0100000000000000000000000000000000000000000000000000000000000000027effffffffffffffffffffffffffffffffffffffffffffffffffffffffffffff1916145b8015610a78575060147f0100000000000000000000000000000000000000000000000000000000000000028460028501815181101515610a0957fe5b9060200101517f010000000000000000000000000000000000000000000000000000000000000090047f0100000000000000000000000000000000000000000000000000000000000000027effffffffffffffffffffffffffffffffffffffffffffffffffffffffffffff1916145b8015610b23575060887f0100000000000000000000000000000000000000000000000000000000000000028460178501815181101515610ab457fe5b9060200101517f010000000000000000000000000000000000000000000000000000000000000090047f0100000000000000000000000000000000000000000000000000000000000000027effffffffffffffffffffffffffffffffffffffffffffffffffffffffffffff1916145b8015610bce575060ac7f0100000000000000000000000000000000000000000000000000000000000000028460188501815181101515610b5f57fe5b9060200101517f010000000000000000000000000000000000000000000000000000000000000090047f0100000000000000000000000000000000000000000000000000000000000000027effffffffffffffffffffffffffffffffffffffffffffffffffffffffffffff1916145b90509392505050565b610bdf611ca2565b610be7611ca2565b610bef611ca2565b600080600080610bfd611ca2565b610c05611ca2565b610c0d611ca2565b6000610c198e8e610756565b809e50819850505060008c1480610c2f5750868c115b15610c3c57869550610c40565b8b95505b85604051805910610c4e5750595b9080825280602002602001820160405250935085604051805910610c6f5750595b9080825280602002602001820160405250925085604051805910610c905750595b90808252806020026020018201604052509150600090505b858160ff161015610d4857610cbf8e8e6040611097565b828260ff16815181101515610cd057fe5b906020019060200201818152505060088d019c50610cee8e8e610756565b809e5081965050508c848260ff16815181101515610d0857fe5b906020019060200201818152505084838260ff16815181101515610d2857fe5b9060200190602002018181525050848d019c508080600101915050610ca8565b8184848f9a509a509a509a505050505050505093509350935093565b6000806000809150600090505b60148173ffffffffffffffffffffffffffffffffffffffff161015610e6d578060130360080273ffffffffffffffffffffffffffffffffffffffff1685858373ffffffffffffffffffffffffffffffffffffffff1601815181101515610dd357fe5b9060200101517f010000000000000000000000000000000000000000000000000000000000000090047f0100000000000000000000000000000000000000000000000000000000000000027f0100000000000000000000000000000000000000000000000000000000000000900473ffffffffffffffffffffffffffffffffffffffff169060020a02820191508080600101915050610d71565b816c01000000000000000000000000029250505092915050565b6000601782148015610f38575060a97f0100000000000000000000000000000000000000000000000000000000000000028460008501815181101515610ec957fe5b9060200101517f010000000000000000000000000000000000000000000000000000000000000090047f0100000000000000000000000000000000000000000000000000000000000000027effffffffffffffffffffffffffffffffffffffffffffffffffffffffffffff1916145b8015610fe3575060147f0100000000000000000000000000000000000000000000000000000000000000028460018501815181101515610f7457fe5b9060200101517f010000000000000000000000000000000000000000000000000000000000000090047f0100000000000000000000000000000000000000000000000000000000000000027effffffffffffffffffffffffffffffffffffffffffffffffffffffffffffff1916145b801561108e575060877f010000000000000000000000000000000000000000000000000000000000000002846016850181518110151561101f57fe5b9060200101517f010000000000000000000000000000000000000000000000000000000000000090047f0100000000000000000000000000000000000000000000000000000000000000027effffffffffffffffffffffffffffffffffffffffffffffffffffffffffffff1916145b90509392505050565b600060088214156111285783838151811015156110b057fe5b9060200101517f010000000000000000000000000000000000000000000000000000000000000090047f0100000000000000000000000000000000000000000000000000000000000000027f0100000000000000000000000000000000000000000000000000000000000000900460ff1690506118a5565b601082141561123c57610100846001850181518110151561114557fe5b9060200101517f010000000000000000000000000000000000000000000000000000000000000090047f0100000000000000000000000000000000000000000000000000000000000000027f010000000000000000000000000000000000000000000000000000000000000090040284848151811015156111c257fe5b9060200101517f010000000000000000000000000000000000000000000000000000000000000090047f0100000000000000000000000000000000000000000000000000000000000000027f010000000000000000000000000000000000000000000000000000000000000090040161ffff1690506118a5565b602082141561145d576301000000846003850181518110151561125b57fe5b9060200101517f010000000000000000000000000000000000000000000000000000000000000090047f0100000000000000000000000000000000000000000000000000000000000000027f01000000000000000000000000000000000000000000000000000000000000009004026201000085600286018151811015156112df57fe5b9060200101517f010000000000000000000000000000000000000000000000000000000000000090047f0100000000000000000000000000000000000000000000000000000000000000027f0100000000000000000000000000000000000000000000000000000000000000900402610100866001870181518110151561136257fe5b9060200101517f010000000000000000000000000000000000000000000000000000000000000090047f0100000000000000000000000000000000000000000000000000000000000000027f010000000000000000000000000000000000000000000000000000000000000090040286868151811015156113df57fe5b9060200101517f010000000000000000000000000000000000000000000000000000000000000090047f0100000000000000000000000000000000000000000000000000000000000000027f0100000000000000000000000000000000000000000000000000000000000000900401010163ffffffff1690506118a5565b60408214156118a457670100000000000000846007850181518110151561148057fe5b9060200101517f010000000000000000000000000000000000000000000000000000000000000090047f0100000000000000000000000000000000000000000000000000000000000000027f01000000000000000000000000000000000000000000000000000000000000009004026601000000000000856006860181518110151561150857fe5b9060200101517f010000000000000000000000000000000000000000000000000000000000000090047f0100000000000000000000000000000000000000000000000000000000000000027f010000000000000000000000000000000000000000000000000000000000000090040265010000000000866005870181518110151561158f57fe5b9060200101517f010000000000000000000000000000000000000000000000000000000000000090047f0100000000000000000000000000000000000000000000000000000000000000027f0100000000000000000000000000000000000000000000000000000000000000900402640100000000876004880181518110151561161557fe5b9060200101517f010000000000000000000000000000000000000000000000000000000000000090047f0100000000000000000000000000000000000000000000000000000000000000027f01000000000000000000000000000000000000000000000000000000000000009004026301000000886003890181518110151561169a57fe5b9060200101517f010000000000000000000000000000000000000000000000000000000000000090047f0100000000000000000000000000000000000000000000000000000000000000027f0100000000000000000000000000000000000000000000000000000000000000900402620100008960028a0181518110151561171e57fe5b9060200101517f010000000000000000000000000000000000000000000000000000000000000090047f0100000000000000000000000000000000000000000000000000000000000000027f01000000000000000000000000000000000000000000000000000000000000009004026101008a60018b018151811015156117a157fe5b9060200101517f010000000000000000000000000000000000000000000000000000000000000090047f0100000000000000000000000000000000000000000000000000000000000000027f01000000000000000000000000000000000000000000000000000000000000009004028a8a81518110151561181e57fe5b9060200101517f010000000000000000000000000000000000000000000000000000000000000090047f0100000000000000000000000000000000000000000000000000000000000000027f010000000000000000000000000000000000000000000000000000000000000090040101010101010167ffffffffffffffff1690506118a5565b5b9392505050565b60008060008060006118bc611ca2565b6118c4611ca2565b6118cc611ca2565b6118d4611ca2565b6118dc611cb6565b60008060026040518059106118ee5750595b9080825280602002602001820160405250965060026040518059106119105750595b9080825280602002602001820160405250955060026040518059106119325750595b9080825280602002602001820160405250945060026040518059106119545750595b9080825280602002602001820160405250935060026040518059106119765750595b90808252806020026020018201604052509250600497506119998d896000611acb565b80995081985050506119ad8d896002610bd7565b809b5081995082985083975050505050600091505b6002821015611a5057611a048d86848151811015156119dd57fe5b9060200190602002015188858151811015156119f557fe5b90602001906020020151610704565b9050808383815181101515611a1557fe5b906020019060200201906bffffffffffffffffffffffff191690816bffffffffffffffffffffffff19168152505081806001019250506119c2565b836000815181101515611a5f57fe5b90602001906020020151836000815181101515611a7857fe5b90602001906020020151856001815181101515611a9157fe5b90602001906020020151856001815181101515611aaa57fe5b906020019060200201519b509b509b509b5050505050505050509193509193565b611ad3611ca2565b600080600080611ae1611ca2565b6000611aed8a8a610756565b809a5081965050506000881480611b0357508488115b15611b1057849350611b14565b8793505b83604051805910611b225750595b90808252806020026020018201604052509150600090505b838160ff161015611b9257602489019850611b558a8a610756565b809a50819450505082828260ff16815181101515611b6f57fe5b906020019060200201818152505060048301890198508080600101915050611b3a565b8189965096505050505050935093915050565b600080611bb0611ca2565b611bb8611ca2565b611bc0611ca2565b60008060049550611bd38a876000611acb565b905080965050611be58a876000610bd7565b50945094509450600091505b8451821015611c9457611c338a8584815181101515611c0c57fe5b906020019060200201518585815181101515611c2457fe5b90602001906020020151610704565b9050886bffffffffffffffffffffffff1916816bffffffffffffffffffffffff1916148015611c795750878583815181101515611c6c57fe5b9060200190602002015110155b15611c875760019650611c95565b8180600101925050611bf1565b5b5050505050509392505050565b602060405190810160405280600081525090565b6020604051908101604052806000815250905600a165627a7a72305820dd767528f317e07ed26ee77cd57414a941c7c08622813175beef955ef03fde8f0029",
  "source": "// Bitcoin transaction parsing library\n\n// Copyright 2016 rain <https://keybase.io/rain>\n//\n// Licensed under the Apache License, Version 2.0 (the \"License\");\n// you may not use this file except in compliance with the License.\n// You may obtain a copy of the License at\n//\n//      http://www.apache.org/licenses/LICENSE-2.0\n//\n// Unless required by applicable law or agreed to in writing, software\n// distributed under the License is distributed on an \"AS IS\" BASIS,\n// WITHOUT WARRANTIES OR CONDITIONS OF ANY KIND, either express or implied.\n// See the License for the specific language governing permissions and\n// limitations under the License.\n\n// https://en.bitcoin.it/wiki/Protocol_documentation#tx\n//\n// Raw Bitcoin transaction structure:\n//\n// field     | size | type     | description\n// version   | 4    | int32    | transaction version number\n// n_tx_in   | 1-9  | var_int  | number of transaction inputs\n// tx_in     | 41+  | tx_in[]  | list of transaction inputs\n// n_tx_out  | 1-9  | var_int  | number of transaction outputs\n// tx_out    | 9+   | tx_out[] | list of transaction outputs\n// lock_time | 4    | uint32   | block number / timestamp at which tx locked\n//\n// Transaction input (tx_in) structure:\n//\n// field      | size | type     | description\n// previous   | 36   | outpoint | Previous output transaction reference\n// script_len | 1-9  | var_int  | Length of the signature script\n// sig_script | ?    | uchar[]  | Script for confirming transaction authorization\n// sequence   | 4    | uint32   | Sender transaction version\n//\n// OutPoint structure:\n//\n// field      | size | type     | description\n// hash       | 32   | char[32] | The hash of the referenced transaction\n// index      | 4    | uint32   | The index of this output in the referenced transaction\n//\n// Transaction output (tx_out) structure:\n//\n// field         | size | type     | description\n// value         | 8    | int64    | Transaction value (Satoshis)\n// pk_script_len | 1-9  | var_int  | Length of the public key script\n// pk_script     | ?    | uchar[]  | Public key as a Bitcoin script.\n//\n// Variable integers (var_int) can be encoded differently depending\n// on the represented value, to save space. Variable integers always\n// precede an array of a variable length data type (e.g. tx_in).\n//\n// Variable integer encodings as a function of represented value:\n//\n// value           | bytes  | format\n// <0xFD (253)     | 1      | uint8\n// <=0xFFFF (65535)| 3      | 0xFD followed by length as uint16\n// <=0xFFFF FFFF   | 5      | 0xFE followed by length as uint32\n// -               | 9      | 0xFF followed by length as uint64\n//\n// Public key scripts `pk_script` are set on the output and can\n// take a number of forms. The regular transaction script is\n// called 'pay-to-pubkey-hash' (P2PKH):\n//\n// OP_DUP OP_HASH160 <pubKeyHash> OP_EQUALVERIFY OP_CHECKSIG\n//\n// OP_x are Bitcoin script opcodes. The bytes representation (including\n// the 0x14 20-byte stack push) is:\n//\n// 0x76 0xA9 0x14 <pubKeyHash> 0x88 0xAC\n//\n// The <pubKeyHash> is the ripemd160 hash of the sha256 hash of\n// the public key, preceded by a network version byte. (21 bytes total)\n//\n// Network version bytes: 0x00 (mainnet); 0x6f (testnet); 0x34 (namecoin)\n//\n// The Bitcoin address is derived from the pubKeyHash. The binary form is the\n// pubKeyHash, plus a checksum at the end.  The checksum is the first 4 bytes\n// of the (32 byte) double sha256 of the pubKeyHash. (25 bytes total)\n// This is converted to base58 to form the publicly used Bitcoin address.\n// Mainnet P2PKH transaction scripts are to addresses beginning with '1'.\n//\n// P2SH ('pay to script hash') scripts only supply a script hash. The spender\n// must then provide the script that would allow them to redeem this output.\n// This allows for arbitrarily complex scripts to be funded using only a\n// hash of the script, and moves the onus on providing the script from\n// the spender to the redeemer.\n//\n// The P2SH script format is simple:\n//\n// OP_HASH160 <scriptHash> OP_EQUAL\n//\n// 0xA9 0x14 <scriptHash> 0x87\n//\n// The <scriptHash> is the ripemd160 hash of the sha256 hash of the\n// redeem script. The P2SH address is derived from the scriptHash.\n// Addresses are the scriptHash with a version prefix of 5, encoded as\n// Base58check. These addresses begin with a '3'.\n\npragma solidity ^0.4.11;\n\n// parse a raw bitcoin transaction byte array\nlibrary BTC {\n    // Convert a variable integer into something useful and return it and\n    // the index to after it.\n    function parseVarInt(bytes txBytes, uint pos) returns (uint, uint) {\n        // the first byte tells us how big the integer is\n        var ibit = uint8(txBytes[pos]);\n        pos += 1;  // skip ibit\n\n        if (ibit < 0xfd) {\n            return (ibit, pos);\n        } else if (ibit == 0xfd) {\n            return (getBytesLE(txBytes, pos, 16), pos + 2);\n        } else if (ibit == 0xfe) {\n            return (getBytesLE(txBytes, pos, 32), pos + 4);\n        } else if (ibit == 0xff) {\n            return (getBytesLE(txBytes, pos, 64), pos + 8);\n        }\n    }\n    // convert little endian bytes to uint\n    function getBytesLE(bytes data, uint pos, uint bits) returns (uint) {\n        if (bits == 8) {\n            return uint8(data[pos]);\n        } else if (bits == 16) {\n            return uint16(data[pos])\n                 + uint16(data[pos + 1]) * 2 ** 8;\n        } else if (bits == 32) {\n            return uint32(data[pos])\n                 + uint32(data[pos + 1]) * 2 ** 8\n                 + uint32(data[pos + 2]) * 2 ** 16\n                 + uint32(data[pos + 3]) * 2 ** 24;\n        } else if (bits == 64) {\n            return uint64(data[pos])\n                 + uint64(data[pos + 1]) * 2 ** 8\n                 + uint64(data[pos + 2]) * 2 ** 16\n                 + uint64(data[pos + 3]) * 2 ** 24\n                 + uint64(data[pos + 4]) * 2 ** 32\n                 + uint64(data[pos + 5]) * 2 ** 40\n                 + uint64(data[pos + 6]) * 2 ** 48\n                 + uint64(data[pos + 7]) * 2 ** 56;\n        }\n    }\n    // scan the full transaction bytes and return the first two output\n    // values (in satoshis) and addresses (in binary)\n    function getFirstTwoOutputs(bytes txBytes)\n             returns (uint, bytes20, uint, bytes20)\n    {\n        uint pos;\n        uint[] memory input_script_lens = new uint[](2);\n        uint[] memory output_script_lens = new uint[](2);\n        uint[] memory script_starts = new uint[](2);\n        uint[] memory output_values = new uint[](2);\n        bytes20[] memory output_addresses = new bytes20[](2);\n\n        pos = 4;  // skip version\n\n        (input_script_lens, pos) = scanInputs(txBytes, pos, 0);\n\n        (output_values, script_starts, output_script_lens, pos) = scanOutputs(txBytes, pos, 2);\n\n        for (uint i = 0; i < 2; i++) {\n            var pkhash = parseOutputScript(txBytes, script_starts[i], output_script_lens[i]);\n            output_addresses[i] = pkhash;\n        }\n\n        return (output_values[0], output_addresses[0],\n                output_values[1], output_addresses[1]);\n    }\n    // Check whether `btcAddress` is in the transaction outputs *and*\n    // whether *at least* `value` has been sent to it.\n    function checkValueSent(bytes txBytes, bytes20 btcAddress, uint value)\n             returns (bool)\n    {\n        uint pos = 4;  // skip version\n        (, pos) = scanInputs(txBytes, pos, 0);  // find end of inputs\n\n        // scan *all* the outputs and find where they are\n        var (output_values, script_starts, output_script_lens,) = scanOutputs(txBytes, pos, 0);\n\n        // look at each output and check whether it at least value to btcAddress\n        for (uint i = 0; i < output_values.length; i++) {\n            var pkhash = parseOutputScript(txBytes, script_starts[i], output_script_lens[i]);\n            if (pkhash == btcAddress && output_values[i] >= value) {\n                return true;\n            }\n        }\n    }\n    // scan the inputs and find the script lengths.\n    // return an array of script lengths and the end position\n    // of the inputs.\n    // takes a 'stop' argument which sets the maximum number of\n    // outputs to scan through. stop=0 => scan all.\n    function scanInputs(bytes txBytes, uint pos, uint stop)\n             returns (uint[], uint)\n    {\n        uint n_inputs;\n        uint halt;\n        uint script_len;\n\n        (n_inputs, pos) = parseVarInt(txBytes, pos);\n\n        if (stop == 0 || stop > n_inputs) {\n            halt = n_inputs;\n        } else {\n            halt = stop;\n        }\n\n        uint[] memory script_lens = new uint[](halt);\n\n        for (var i = 0; i < halt; i++) {\n            pos += 36;  // skip outpoint\n            (script_len, pos) = parseVarInt(txBytes, pos);\n            script_lens[i] = script_len;\n            pos += script_len + 4;  // skip sig_script, seq\n        }\n\n        return (script_lens, pos);\n    }\n    // scan the outputs and find the values and script lengths.\n    // return array of values, array of script lengths and the\n    // end position of the outputs.\n    // takes a 'stop' argument which sets the maximum number of\n    // outputs to scan through. stop=0 => scan all.\n    function scanOutputs(bytes txBytes, uint pos, uint stop)\n             returns (uint[], uint[], uint[], uint)\n    {\n        uint n_outputs;\n        uint halt;\n        uint script_len;\n\n        (n_outputs, pos) = parseVarInt(txBytes, pos);\n\n        if (stop == 0 || stop > n_outputs) {\n            halt = n_outputs;\n        } else {\n            halt = stop;\n        }\n\n        uint[] memory script_starts = new uint[](halt);\n        uint[] memory script_lens = new uint[](halt);\n        uint[] memory output_values = new uint[](halt);\n\n        for (var i = 0; i < halt; i++) {\n            output_values[i] = getBytesLE(txBytes, pos, 64);\n            pos += 8;\n\n            (script_len, pos) = parseVarInt(txBytes, pos);\n            script_starts[i] = pos;\n            script_lens[i] = script_len;\n            pos += script_len;\n        }\n\n        return (output_values, script_starts, script_lens, pos);\n    }\n    // Slice 20 contiguous bytes from bytes `data`, starting at `start`\n    function sliceBytes20(bytes data, uint start) returns (bytes20) {\n        uint160 slice = 0;\n        for (uint160 i = 0; i < 20; i++) {\n            slice += uint160(data[i + start]) << (8 * (19 - i));\n        }\n        return bytes20(slice);\n    }\n    // returns true if the bytes located in txBytes by pos and\n    // script_len represent a P2PKH script\n    function isP2PKH(bytes txBytes, uint pos, uint script_len) returns (bool) {\n        return (script_len == 25)           // 20 byte pubkeyhash + 5 bytes of script\n            && (txBytes[pos] == 0x76)       // OP_DUP\n            && (txBytes[pos + 1] == 0xa9)   // OP_HASH160\n            && (txBytes[pos + 2] == 0x14)   // bytes to push\n            && (txBytes[pos + 23] == 0x88)  // OP_EQUALVERIFY\n            && (txBytes[pos + 24] == 0xac); // OP_CHECKSIG\n    }\n    // returns true if the bytes located in txBytes by pos and\n    // script_len represent a P2SH script\n    function isP2SH(bytes txBytes, uint pos, uint script_len) returns (bool) {\n        return (script_len == 23)           // 20 byte scripthash + 3 bytes of script\n            && (txBytes[pos + 0] == 0xa9)   // OP_HASH160\n            && (txBytes[pos + 1] == 0x14)   // bytes to push\n            && (txBytes[pos + 22] == 0x87); // OP_EQUAL\n    }\n    // Get the pubkeyhash / scripthash from an output script. Assumes\n    // pay-to-pubkey-hash (P2PKH) or pay-to-script-hash (P2SH) outputs.\n    // Returns the pubkeyhash/ scripthash, or zero if unknown output.\n    function parseOutputScript(bytes txBytes, uint pos, uint script_len)\n             returns (bytes20)\n    {\n        if (isP2PKH(txBytes, pos, script_len)) {\n            return sliceBytes20(txBytes, pos + 3);\n        } else if (isP2SH(txBytes, pos, script_len)) {\n            return sliceBytes20(txBytes, pos + 2);\n        } else {\n            return;\n        }\n    }\n}\n",
  "sourcePath": "/dapp/leap/contracts/BTC.sol",
  "compiler": {
    "name": "solc",
    "version": "0.4.18+commit.9cf6e910.Emscripten.clang"
  },
  "schemaVersion": "1.0.1",
  "updatedAt": "2017-12-13T19:13:02.009Z",
  "contract_name": "BTC",
  "unlinked_binary": "0x6060604052341561000f57600080fd5b5b611d188061001f6000396000f300606060405236156100a2576000357c0100000000000000000000000000000000000000000000000000000000900463ffffffff1680630d63fdbe146100a75780634d7dcfbd1461013d5780638c115322146101b357806397a420221461022f578063cba66e1414610382578063d5c469f81461040f578063d5c9712f1461048b578063e0303a2e14610503578063e0a802ba146105ba578063e57ea16d1461067b575b600080fd5b610109600480803590602001908201803590602001908080601f01602080910402602001604051908101604052809392919081815260200183838082843782019150505050505091908035906020019091908035906020019091905050610706565b60405180826bffffffffffffffffffffffff19166bffffffffffffffffffffffff1916815260200191505060405180910390f35b610196600480803590602001908201803590602001908080601f0160208091040260200160405190810160405280939291908181526020018383808284378201915050505050509190803590602001909190505061075e565b604051808381526020018281526020019250505060405180910390f35b610215600480803590602001908201803590602001908080601f0160208091040260200160405190810160405280939291908181526020018383808284378201915050505050509190803590602001909190803590602001909190505061087f565b604051808215151515815260200191505060405180910390f35b610291600480803590602001908201803590602001908080601f01602080910402602001604051908101604052809392919081815260200183838082843782019150505050505091908035906020019091908035906020019091905050610be3565b60405180806020018060200180602001858152602001848103845288818151815260200191508051906020019060200280838360005b838110156102e35780820151818401525b6020810190506102c7565b50505050905001848103835287818151815260200191508051906020019060200280838360005b838110156103265780820151818401525b60208101905061030a565b50505050905001848103825286818151815260200191508051906020019060200280838360005b838110156103695780820151818401525b60208101905061034d565b5050505090500197505050505050505060405180910390f35b6103db600480803590602001908201803590602001908080601f01602080910402602001604051908101604052809392919081815260200183838082843782019150505050505091908035906020019091905050610d75565b60405180826bffffffffffffffffffffffff19166bffffffffffffffffffffffff1916815260200191505060405180910390f35b610471600480803590602001908201803590602001908080601f01602080910402602001604051908101604052809392919081815260200183838082843782019150505050505091908035906020019091908035906020019091905050610e9a565b604051808215151515815260200191505060405180910390f35b6104ed600480803590602001908201803590602001908080601f016020809104026020016040519081016040528093929190818152602001838380828437820191505050505050919080359060200190919080359060200190919050506110ab565b6040518082815260200191505060405180910390f35b610553600480803590602001908201803590602001908080601f016020809104026020016040519081016040528093929190818152602001838380828437820191505050505050919050506118c3565b60405180858152602001846bffffffffffffffffffffffff19166bffffffffffffffffffffffff19168152602001838152602001826bffffffffffffffffffffffff19166bffffffffffffffffffffffff1916815260200194505050505060405180910390f35b61061c600480803590602001908201803590602001908080601f01602080910402602001604051908101604052809392919081815260200183838082843782019150505050505091908035906020019091908035906020019091905050611ae9565b6040518080602001838152602001828103825284818151815260200191508051906020019060200280838360005b838110156106665780820151818401525b60208101905061064a565b50505050905001935050505060405180910390f35b6106ec600480803590602001908201803590602001908080601f016020809104026020016040519081016040528093929190818152602001838380828437820191505050505050919080356bffffffffffffffffffffffff1916906020019091908035906020019091905050611bc6565b604051808215151515815260200191505060405180910390f35b600061071384848461087f565b1561072c576107258460038501610d75565b9050610757565b610737848484610e9a565b15610750576107498460028501610d75565b9050610757565b610757565b5b5b9392505050565b6000806000848481518110151561077157fe5b9060200101517f010000000000000000000000000000000000000000000000000000000000000090047f0100000000000000000000000000000000000000000000000000000000000000027f01000000000000000000000000000000000000000000000000000000000000009004905060018401935060fd8160ff1610156108045780848160ff16915092509250610877565b60fd8160ff1614156108295761081c858560106110ab565b6002850192509250610877565b60fe8160ff16141561084e57610841858560206110ab565b6004850192509250610877565b60ff8160ff16141561087357610866858560406110ab565b6008850192509250610877565b5b5b5b5b509250929050565b600060198214801561092d575060767f01000000000000000000000000000000000000000000000000000000000000000284848151811015156108be57fe5b9060200101517f010000000000000000000000000000000000000000000000000000000000000090047f0100000000000000000000000000000000000000000000000000000000000000027effffffffffffffffffffffffffffffffffffffffffffffffffffffffffffff1916145b80156109d8575060a97f010000000000000000000000000000000000000000000000000000000000000002846001850181518110151561096957fe5b9060200101517f010000000000000000000000000000000000000000000000000000000000000090047f0100000000000000000000000000000000000000000000000000000000000000027effffffffffffffffffffffffffffffffffffffffffffffffffffffffffffff1916145b8015610a83575060147f0100000000000000000000000000000000000000000000000000000000000000028460028501815181101515610a1457fe5b9060200101517f010000000000000000000000000000000000000000000000000000000000000090047f0100000000000000000000000000000000000000000000000000000000000000027effffffffffffffffffffffffffffffffffffffffffffffffffffffffffffff1916145b8015610b2e575060887f0100000000000000000000000000000000000000000000000000000000000000028460178501815181101515610abf57fe5b9060200101517f010000000000000000000000000000000000000000000000000000000000000090047f0100000000000000000000000000000000000000000000000000000000000000027effffffffffffffffffffffffffffffffffffffffffffffffffffffffffffff1916145b8015610bd9575060ac7f0100000000000000000000000000000000000000000000000000000000000000028460188501815181101515610b6a57fe5b9060200101517f010000000000000000000000000000000000000000000000000000000000000090047f0100000000000000000000000000000000000000000000000000000000000000027effffffffffffffffffffffffffffffffffffffffffffffffffffffffffffff1916145b90505b9392505050565b610beb611cc4565b610bf3611cc4565b610bfb611cc4565b600080600080610c09611cc4565b610c11611cc4565b610c19611cc4565b6000610c258e8e61075e565b809e50819850505060008c1480610c3b5750868c115b15610c4857869550610c4c565b8b95505b85604051805910610c5a5750595b908082528060200260200182016040525b50935085604051805910610c7c5750595b908082528060200260200182016040525b50925085604051805910610c9e5750595b908082528060200260200182016040525b509150600090505b858160ff161015610d5857610cce8e8e60406110ab565b828260ff16815181101515610cdf57fe5b906020019060200201818152505060088d019c50610cfd8e8e61075e565b809e5081965050508c848260ff16815181101515610d1757fe5b906020019060200201818152505084838260ff16815181101515610d3757fe5b9060200190602002018181525050848d019c505b8080600101915050610cb7565b8184848f9a509a509a509a505b5050505050505093509350935093565b6000806000809150600090505b60148173ffffffffffffffffffffffffffffffffffffffff161015610e7f578060130360080273ffffffffffffffffffffffffffffffffffffffff1685858373ffffffffffffffffffffffffffffffffffffffff1601815181101515610de457fe5b9060200101517f010000000000000000000000000000000000000000000000000000000000000090047f0100000000000000000000000000000000000000000000000000000000000000027f0100000000000000000000000000000000000000000000000000000000000000900473ffffffffffffffffffffffffffffffffffffffff169060020a02820191505b8080600101915050610d82565b816c010000000000000000000000000292505b505092915050565b6000601782148015610f4b575060a97f0100000000000000000000000000000000000000000000000000000000000000028460008501815181101515610edc57fe5b9060200101517f010000000000000000000000000000000000000000000000000000000000000090047f0100000000000000000000000000000000000000000000000000000000000000027effffffffffffffffffffffffffffffffffffffffffffffffffffffffffffff1916145b8015610ff6575060147f0100000000000000000000000000000000000000000000000000000000000000028460018501815181101515610f8757fe5b9060200101517f010000000000000000000000000000000000000000000000000000000000000090047f0100000000000000000000000000000000000000000000000000000000000000027effffffffffffffffffffffffffffffffffffffffffffffffffffffffffffff1916145b80156110a1575060877f010000000000000000000000000000000000000000000000000000000000000002846016850181518110151561103257fe5b9060200101517f010000000000000000000000000000000000000000000000000000000000000090047f0100000000000000000000000000000000000000000000000000000000000000027effffffffffffffffffffffffffffffffffffffffffffffffffffffffffffff1916145b90505b9392505050565b6000600882141561113c5783838151811015156110c457fe5b9060200101517f010000000000000000000000000000000000000000000000000000000000000090047f0100000000000000000000000000000000000000000000000000000000000000027f0100000000000000000000000000000000000000000000000000000000000000900460ff1690506118bc565b601082141561125057610100846001850181518110151561115957fe5b9060200101517f010000000000000000000000000000000000000000000000000000000000000090047f0100000000000000000000000000000000000000000000000000000000000000027f010000000000000000000000000000000000000000000000000000000000000090040284848151811015156111d657fe5b9060200101517f010000000000000000000000000000000000000000000000000000000000000090047f0100000000000000000000000000000000000000000000000000000000000000027f010000000000000000000000000000000000000000000000000000000000000090040161ffff1690506118bc565b6020821415611471576301000000846003850181518110151561126f57fe5b9060200101517f010000000000000000000000000000000000000000000000000000000000000090047f0100000000000000000000000000000000000000000000000000000000000000027f01000000000000000000000000000000000000000000000000000000000000009004026201000085600286018151811015156112f357fe5b9060200101517f010000000000000000000000000000000000000000000000000000000000000090047f0100000000000000000000000000000000000000000000000000000000000000027f0100000000000000000000000000000000000000000000000000000000000000900402610100866001870181518110151561137657fe5b9060200101517f010000000000000000000000000000000000000000000000000000000000000090047f0100000000000000000000000000000000000000000000000000000000000000027f010000000000000000000000000000000000000000000000000000000000000090040286868151811015156113f357fe5b9060200101517f010000000000000000000000000000000000000000000000000000000000000090047f0100000000000000000000000000000000000000000000000000000000000000027f0100000000000000000000000000000000000000000000000000000000000000900401010163ffffffff1690506118bc565b60408214156118b857670100000000000000846007850181518110151561149457fe5b9060200101517f010000000000000000000000000000000000000000000000000000000000000090047f0100000000000000000000000000000000000000000000000000000000000000027f01000000000000000000000000000000000000000000000000000000000000009004026601000000000000856006860181518110151561151c57fe5b9060200101517f010000000000000000000000000000000000000000000000000000000000000090047f0100000000000000000000000000000000000000000000000000000000000000027f01000000000000000000000000000000000000000000000000000000000000009004026501000000000086600587018151811015156115a357fe5b9060200101517f010000000000000000000000000000000000000000000000000000000000000090047f0100000000000000000000000000000000000000000000000000000000000000027f0100000000000000000000000000000000000000000000000000000000000000900402640100000000876004880181518110151561162957fe5b9060200101517f010000000000000000000000000000000000000000000000000000000000000090047f0100000000000000000000000000000000000000000000000000000000000000027f0100000000000000000000000000000000000000000000000000000000000000900402630100000088600389018151811015156116ae57fe5b9060200101517f010000000000000000000000000000000000000000000000000000000000000090047f0100000000000000000000000000000000000000000000000000000000000000027f0100000000000000000000000000000000000000000000000000000000000000900402620100008960028a0181518110151561173257fe5b9060200101517f010000000000000000000000000000000000000000000000000000000000000090047f0100000000000000000000000000000000000000000000000000000000000000027f01000000000000000000000000000000000000000000000000000000000000009004026101008a60018b018151811015156117b557fe5b9060200101517f010000000000000000000000000000000000000000000000000000000000000090047f0100000000000000000000000000000000000000000000000000000000000000027f01000000000000000000000000000000000000000000000000000000000000009004028a8a81518110151561183257fe5b9060200101517f010000000000000000000000000000000000000000000000000000000000000090047f0100000000000000000000000000000000000000000000000000000000000000027f010000000000000000000000000000000000000000000000000000000000000090040101010101010167ffffffffffffffff1690506118bc565b5b5b5b5b9392505050565b60008060008060006118d3611cc4565b6118db611cc4565b6118e3611cc4565b6118eb611cc4565b6118f3611cd8565b60008060026040518059106119055750595b908082528060200260200182016040525b50965060026040518059106119285750595b908082528060200260200182016040525b509550600260405180591061194b5750595b908082528060200260200182016040525b509450600260405180591061196e5750595b908082528060200260200182016040525b50935060026040518059106119915750595b908082528060200260200182016040525b509250600497506119b58d896000611ae9565b80995081985050506119c98d896002610be3565b809b5081995082985083975050505050600091505b6002821015611a6d57611a208d86848151811015156119f957fe5b906020019060200201518885815181101515611a1157fe5b90602001906020020151610706565b9050808383815181101515611a3157fe5b906020019060200201906bffffffffffffffffffffffff191690816bffffffffffffffffffffffff1916815250505b81806001019250506119de565b836000815181101515611a7c57fe5b90602001906020020151836000815181101515611a9557fe5b90602001906020020151856001815181101515611aae57fe5b90602001906020020151856001815181101515611ac757fe5b906020019060200201519b509b509b509b505b50505050505050509193509193565b611af1611cc4565b600080600080611aff611cc4565b6000611b0b8a8a61075e565b809a5081965050506000881480611b2157508488115b15611b2e57849350611b32565b8793505b83604051805910611b405750595b908082528060200260200182016040525b509150600090505b838160ff161015611bb257602489019850611b748a8a61075e565b809a50819450505082828260ff16815181101515611b8e57fe5b906020019060200201818152505060048301890198505b8080600101915050611b59565b8189965096505b5050505050935093915050565b600080611bd1611cc4565b611bd9611cc4565b611be1611cc4565b60008060049550611bf48a876000611ae9565b905080965050611c068a876000610be3565b50945094509450600091505b8451821015611cb657611c548a8584815181101515611c2d57fe5b906020019060200201518585815181101515611c4557fe5b90602001906020020151610706565b9050886bffffffffffffffffffffffff1916816bffffffffffffffffffffffff1916148015611c9a5750878583815181101515611c8d57fe5b9060200190602002015110155b15611ca85760019650611cb7565b5b8180600101925050611c12565b5b5050505050509392505050565b602060405190810160405280600081525090565b6020604051908101604052806000815250905600a165627a7a72305820665b4be1e127bbc43db11a2b9fa953e8630274b452d80c3599613214bb5acc470029",
  "schema_version": "0.0.5",
  "updated_at": 1515592766427
}