{
  "contractName": "LeapTokensale",
  "abi": [
    {
      "constant": true,
      "inputs": [],
      "name": "duration",
      "outputs": [
        {
          "name": "",
          "type": "uint256"
        }
      ],
      "payable": false,
      "stateMutability": "view",
      "type": "function"
    },
    {
      "constant": true,
      "inputs": [],
      "name": "ecosystemBasePoints",
      "outputs": [
        {
          "name": "",
          "type": "uint256"
        }
      ],
      "payable": false,
      "stateMutability": "view",
      "type": "function"
    },
    {
      "constant": true,
      "inputs": [],
      "name": "rate",
      "outputs": [
        {
          "name": "",
          "type": "uint256"
        }
      ],
      "payable": false,
      "stateMutability": "view",
      "type": "function"
    },
    {
      "constant": true,
      "inputs": [],
      "name": "endTime",
      "outputs": [
        {
          "name": "",
          "type": "uint256"
        }
      ],
      "payable": false,
      "stateMutability": "view",
      "type": "function"
    },
    {
      "constant": false,
      "inputs": [
        {
          "name": "_relay",
          "type": "address"
        }
      ],
      "name": "setBitcoinProxy",
      "outputs": [],
      "payable": false,
      "stateMutability": "nonpayable",
      "type": "function"
    },
    {
      "constant": false,
      "inputs": [],
      "name": "finalize",
      "outputs": [],
      "payable": false,
      "stateMutability": "nonpayable",
      "type": "function"
    },
    {
      "constant": true,
      "inputs": [],
      "name": "wallet",
      "outputs": [
        {
          "name": "",
          "type": "address"
        }
      ],
      "payable": false,
      "stateMutability": "view",
      "type": "function"
    },
    {
      "constant": false,
      "inputs": [],
      "name": "buyCoinsETH",
      "outputs": [],
      "payable": true,
      "stateMutability": "payable",
      "type": "function"
    },
    {
      "constant": true,
      "inputs": [],
      "name": "leapRaised",
      "outputs": [
        {
          "name": "",
          "type": "uint256"
        }
      ],
      "payable": false,
      "stateMutability": "view",
      "type": "function"
    },
    {
      "constant": true,
      "inputs": [],
      "name": "teamBasePoints",
      "outputs": [
        {
          "name": "",
          "type": "uint256"
        }
      ],
      "payable": false,
      "stateMutability": "view",
      "type": "function"
    },
    {
      "constant": true,
      "inputs": [],
      "name": "btcMultiplierBasePoints",
      "outputs": [
        {
          "name": "",
          "type": "uint256"
        }
      ],
      "payable": false,
      "stateMutability": "view",
      "type": "function"
    },
    {
      "constant": true,
      "inputs": [
        {
          "name": "beneficiary",
          "type": "address"
        }
      ],
      "name": "balanceOf",
      "outputs": [
        {
          "name": "",
          "type": "uint256"
        }
      ],
      "payable": false,
      "stateMutability": "view",
      "type": "function"
    },
    {
      "constant": true,
      "inputs": [],
      "name": "startTime",
      "outputs": [
        {
          "name": "",
          "type": "uint256"
        }
      ],
      "payable": false,
      "stateMutability": "view",
      "type": "function"
    },
    {
      "constant": true,
      "inputs": [],
      "name": "team",
      "outputs": [
        {
          "name": "",
          "type": "address"
        }
      ],
      "payable": false,
      "stateMutability": "view",
      "type": "function"
    },
    {
      "constant": false,
      "inputs": [
        {
          "name": "beneficiary",
          "type": "address"
        },
        {
          "name": "btcAmount",
          "type": "uint256"
        }
      ],
      "name": "buyCoinsBTC",
      "outputs": [],
      "payable": false,
      "stateMutability": "nonpayable",
      "type": "function"
    },
    {
      "constant": true,
      "inputs": [],
      "name": "isFinalized",
      "outputs": [
        {
          "name": "",
          "type": "bool"
        }
      ],
      "payable": false,
      "stateMutability": "view",
      "type": "function"
    },
    {
      "constant": true,
      "inputs": [],
      "name": "owner",
      "outputs": [
        {
          "name": "",
          "type": "address"
        }
      ],
      "payable": false,
      "stateMutability": "view",
      "type": "function"
    },
    {
      "constant": true,
      "inputs": [],
      "name": "contributorsBasePoints",
      "outputs": [
        {
          "name": "",
          "type": "uint256"
        }
      ],
      "payable": false,
      "stateMutability": "view",
      "type": "function"
    },
    {
      "constant": true,
      "inputs": [],
      "name": "bounty",
      "outputs": [
        {
          "name": "",
          "type": "address"
        }
      ],
      "payable": false,
      "stateMutability": "view",
      "type": "function"
    },
    {
      "constant": true,
      "inputs": [],
      "name": "reserveBasePoints",
      "outputs": [
        {
          "name": "",
          "type": "uint256"
        }
      ],
      "payable": false,
      "stateMutability": "view",
      "type": "function"
    },
    {
      "constant": true,
      "inputs": [],
      "name": "ecosystem",
      "outputs": [
        {
          "name": "",
          "type": "address"
        }
      ],
      "payable": false,
      "stateMutability": "view",
      "type": "function"
    },
    {
      "constant": true,
      "inputs": [],
      "name": "placeholder",
      "outputs": [
        {
          "name": "",
          "type": "address"
        }
      ],
      "payable": false,
      "stateMutability": "view",
      "type": "function"
    },
    {
      "constant": true,
      "inputs": [
        {
          "name": "beneficiary",
          "type": "address"
        }
      ],
      "name": "validPayment",
      "outputs": [
        {
          "name": "",
          "type": "bool"
        }
      ],
      "payable": false,
      "stateMutability": "view",
      "type": "function"
    },
    {
      "constant": false,
      "inputs": [
        {
          "name": "_rate",
          "type": "uint256"
        }
      ],
      "name": "updateBitcoinMultiplier",
      "outputs": [],
      "payable": false,
      "stateMutability": "nonpayable",
      "type": "function"
    },
    {
      "constant": true,
      "inputs": [],
      "name": "hardcap",
      "outputs": [
        {
          "name": "",
          "type": "uint256"
        }
      ],
      "payable": false,
      "stateMutability": "view",
      "type": "function"
    },
    {
      "constant": true,
      "inputs": [],
      "name": "reserve",
      "outputs": [
        {
          "name": "",
          "type": "address"
        }
      ],
      "payable": false,
      "stateMutability": "view",
      "type": "function"
    },
    {
      "constant": true,
      "inputs": [],
      "name": "bountyBasePoints",
      "outputs": [
        {
          "name": "",
          "type": "uint256"
        }
      ],
      "payable": false,
      "stateMutability": "view",
      "type": "function"
    },
    {
      "constant": true,
      "inputs": [],
      "name": "btcRate",
      "outputs": [
        {
          "name": "",
          "type": "uint256"
        }
      ],
      "payable": false,
      "stateMutability": "view",
      "type": "function"
    },
    {
      "constant": true,
      "inputs": [
        {
          "name": "",
          "type": "address"
        }
      ],
      "name": "lockedAccounts",
      "outputs": [
        {
          "name": "beneficiary",
          "type": "address"
        },
        {
          "name": "amount",
          "type": "uint256"
        },
        {
          "name": "weiRaised",
          "type": "uint256"
        },
        {
          "name": "satoshiRaised",
          "type": "uint256"
        },
        {
          "name": "isContribution",
          "type": "bool"
        }
      ],
      "payable": false,
      "stateMutability": "view",
      "type": "function"
    },
    {
      "constant": true,
      "inputs": [],
      "name": "proxy",
      "outputs": [
        {
          "name": "",
          "type": "address"
        }
      ],
      "payable": false,
      "stateMutability": "view",
      "type": "function"
    },
    {
      "constant": true,
      "inputs": [],
      "name": "hasEnded",
      "outputs": [
        {
          "name": "",
          "type": "bool"
        }
      ],
      "payable": false,
      "stateMutability": "view",
      "type": "function"
    },
    {
      "constant": false,
      "inputs": [
        {
          "name": "newOwner",
          "type": "address"
        }
      ],
      "name": "transferOwnership",
      "outputs": [],
      "payable": false,
      "stateMutability": "nonpayable",
      "type": "function"
    },
    {
      "constant": false,
      "inputs": [
        {
          "name": "beneficiary",
          "type": "address"
        }
      ],
      "name": "refund",
      "outputs": [],
      "payable": true,
      "stateMutability": "payable",
      "type": "function"
    },
    {
      "constant": true,
      "inputs": [],
      "name": "token",
      "outputs": [
        {
          "name": "",
          "type": "address"
        }
      ],
      "payable": false,
      "stateMutability": "view",
      "type": "function"
    },
    {
      "inputs": [
        {
          "name": "_startTime",
          "type": "uint256"
        },
        {
          "name": "_token",
          "type": "address"
        },
        {
          "name": "_placeholder",
          "type": "address"
        },
        {
          "name": "_wallet",
          "type": "address"
        },
        {
          "name": "_bounty",
          "type": "address"
        },
        {
          "name": "_team",
          "type": "address"
        },
        {
          "name": "_ecosystem",
          "type": "address"
        },
        {
          "name": "_reserve",
          "type": "address"
        }
      ],
      "payable": false,
      "stateMutability": "nonpayable",
      "type": "constructor"
    },
    {
      "payable": true,
      "stateMutability": "payable",
      "type": "fallback"
    },
    {
      "anonymous": false,
      "inputs": [
        {
          "indexed": false,
          "name": "beneficiary",
          "type": "address"
        },
        {
          "indexed": false,
          "name": "account",
          "type": "address"
        },
        {
          "indexed": false,
          "name": "weiAmount",
          "type": "uint256"
        },
        {
          "indexed": false,
          "name": "coinsAmount",
          "type": "uint256"
        }
      ],
      "name": "TokenPurchaseETH",
      "type": "event"
    },
    {
      "anonymous": false,
      "inputs": [
        {
          "indexed": false,
          "name": "beneficiary",
          "type": "address"
        },
        {
          "indexed": false,
          "name": "account",
          "type": "address"
        },
        {
          "indexed": false,
          "name": "weiAmount",
          "type": "uint256"
        },
        {
          "indexed": false,
          "name": "coinsAmount",
          "type": "uint256"
        }
      ],
      "name": "TokenPurchaseBTC",
      "type": "event"
    },
    {
      "anonymous": false,
      "inputs": [],
      "name": "Finalized",
      "type": "event"
    },
    {
      "anonymous": false,
      "inputs": [
        {
          "indexed": false,
          "name": "rate",
          "type": "uint256"
        }
      ],
      "name": "BitcoinRateChanged",
      "type": "event"
    },
    {
      "anonymous": false,
      "inputs": [
        {
          "indexed": false,
          "name": "amount",
          "type": "uint256"
        },
        {
          "indexed": false,
          "name": "beneficiary",
          "type": "address"
        }
      ],
      "name": "BitcoinCharge",
      "type": "event"
    },
    {
      "anonymous": false,
      "inputs": [
        {
          "indexed": false,
          "name": "amount",
          "type": "uint256"
        },
        {
          "indexed": false,
          "name": "beneficiary",
          "type": "address"
        }
      ],
      "name": "ETHCharge",
      "type": "event"
    },
    {
      "anonymous": false,
      "inputs": [
        {
          "indexed": true,
          "name": "previousOwner",
          "type": "address"
        },
        {
          "indexed": true,
          "name": "newOwner",
          "type": "address"
        }
      ],
      "name": "OwnershipTransferred",
      "type": "event"
    }
  ],
  "bytecode": "0x60606040526127106008556000600960006101000a81548160ff021916908315150217905550610fa0600f556103e86010556105dc6011556105dc6012556107d060135534156200004f57600080fd5b60405161010080620027e78339810160405280805190602001909190805190602001909190805190602001909190805190602001909190805190602001909190805190602001909190805190602001909190805190602001909190505087878787336000806101000a81548173ffffffffffffffffffffffffffffffffffffffff021916908373ffffffffffffffffffffffffffffffffffffffff1602179055504284101515156200010057600080fd5b8360058190555062000125620003086401000000000262000c6a176401000000009004565b6005540160068190555082600360006101000a81548173ffffffffffffffffffffffffffffffffffffffff021916908373ffffffffffffffffffffffffffffffffffffffff16021790555081600460006101000a81548173ffffffffffffffffffffffffffffffffffffffff021916908373ffffffffffffffffffffffffffffffffffffffff16021790555080600160006101000a81548173ffffffffffffffffffffffffffffffffffffffff021916908373ffffffffffffffffffffffffffffffffffffffff1602179055505050505083600b60006101000a81548173ffffffffffffffffffffffffffffffffffffffff021916908373ffffffffffffffffffffffffffffffffffffffff16021790555082600c60006101000a81548173ffffffffffffffffffffffffffffffffffffffff021916908373ffffffffffffffffffffffffffffffffffffffff16021790555081600d60006101000a81548173ffffffffffffffffffffffffffffffffffffffff021916908373ffffffffffffffffffffffffffffffffffffffff16021790555080600e60006101000a81548173ffffffffffffffffffffffffffffffffffffffff021916908373ffffffffffffffffffffffffffffffffffffffff160217905550505050505050505062000313565b600062127500905090565b6124c480620003236000396000f3006060604052600436106101ac576000357c0100000000000000000000000000000000000000000000000000000000900463ffffffff1680630fb5a6b4146101b657806328904287146101df5780632c4e722e146102085780633197cbb61461023157806334b4dd961461025a5780634bb278f314610293578063521eb273146102a8578063623ce34a146102fd57806362c6c19f146103075780636742f0c414610330578063706449261461035957806370a082311461038257806378e97925146103cf57806385f2aef2146103f85780638cf292e41461044d5780638d4e40831461048f5780638da5cb5b146104bc5780639239caac14610511578063943dfef11461053a57806399e47d501461058f5780639c74a579146105b85780639e75143c1461060d578063a5a79c2814610662578063ac65ea99146106b3578063b071cbe6146106d6578063cd3293de146106ff578063cdbbb3f614610754578063d2719d221461077d578063ebd0d820146107a6578063ec5568891461083f578063ecb70fb714610894578063f2fde38b146108c1578063fa89401a146108fa578063fc0c546a14610928575b6101b461097d565b005b34156101c157600080fd5b6101c9610c6a565b6040518082815260200191505060405180910390f35b34156101ea57600080fd5b6101f2610c75565b6040518082815260200191505060405180910390f35b341561021357600080fd5b61021b610c7b565b6040518082815260200191505060405180910390f35b341561023c57600080fd5b610244610d02565b6040518082815260200191505060405180910390f35b341561026557600080fd5b610291600480803573ffffffffffffffffffffffffffffffffffffffff16906020019091905050610d08565b005b341561029e57600080fd5b6102a6610da7565b005b34156102b357600080fd5b6102bb610e82565b604051808273ffffffffffffffffffffffffffffffffffffffff1673ffffffffffffffffffffffffffffffffffffffff16815260200191505060405180910390f35b61030561097d565b005b341561031257600080fd5b61031a610ea8565b6040518082815260200191505060405180910390f35b341561033b57600080fd5b610343610eae565b6040518082815260200191505060405180910390f35b341561036457600080fd5b61036c610eb4565b6040518082815260200191505060405180910390f35b341561038d57600080fd5b6103b9600480803573ffffffffffffffffffffffffffffffffffffffff16906020019091905050610eba565b6040518082815260200191505060405180910390f35b34156103da57600080fd5b6103e2610f06565b6040518082815260200191505060405180910390f35b341561040357600080fd5b61040b610f0c565b604051808273ffffffffffffffffffffffffffffffffffffffff1673ffffffffffffffffffffffffffffffffffffffff16815260200191505060405180910390f35b341561045857600080fd5b61048d600480803573ffffffffffffffffffffffffffffffffffffffff16906020019091908035906020019091905050610f32565b005b341561049a57600080fd5b6104a261121a565b604051808215151515815260200191505060405180910390f35b34156104c757600080fd5b6104cf61122d565b604051808273ffffffffffffffffffffffffffffffffffffffff1673ffffffffffffffffffffffffffffffffffffffff16815260200191505060405180910390f35b341561051c57600080fd5b610524611252565b6040518082815260200191505060405180910390f35b341561054557600080fd5b61054d611258565b604051808273ffffffffffffffffffffffffffffffffffffffff1673ffffffffffffffffffffffffffffffffffffffff16815260200191505060405180910390f35b341561059a57600080fd5b6105a261127e565b6040518082815260200191505060405180910390f35b34156105c357600080fd5b6105cb611284565b604051808273ffffffffffffffffffffffffffffffffffffffff1673ffffffffffffffffffffffffffffffffffffffff16815260200191505060405180910390f35b341561061857600080fd5b6106206112aa565b604051808273ffffffffffffffffffffffffffffffffffffffff1673ffffffffffffffffffffffffffffffffffffffff16815260200191505060405180910390f35b341561066d57600080fd5b610699600480803573ffffffffffffffffffffffffffffffffffffffff169060200190919050506112d0565b604051808215151515815260200191505060405180910390f35b34156106be57600080fd5b6106d4600480803590602001909190505061133e565b005b34156106e157600080fd5b6106e96113da565b6040518082815260200191505060405180910390f35b341561070a57600080fd5b6107126113ed565b604051808273ffffffffffffffffffffffffffffffffffffffff1673ffffffffffffffffffffffffffffffffffffffff16815260200191505060405180910390f35b341561075f57600080fd5b610767611413565b6040518082815260200191505060405180910390f35b341561078857600080fd5b610790611419565b6040518082815260200191505060405180910390f35b34156107b157600080fd5b6107dd600480803573ffffffffffffffffffffffffffffffffffffffff16906020019091905050611467565b604051808673ffffffffffffffffffffffffffffffffffffffff1673ffffffffffffffffffffffffffffffffffffffff168152602001858152602001848152602001838152602001821515151581526020019550505050505060405180910390f35b341561084a57600080fd5b6108526114ca565b604051808273ffffffffffffffffffffffffffffffffffffffff1673ffffffffffffffffffffffffffffffffffffffff16815260200191505060405180910390f35b341561089f57600080fd5b6108a76114f0565b604051808215151515815260200191505060405180910390f35b34156108cc57600080fd5b6108f8600480803573ffffffffffffffffffffffffffffffffffffffff1690602001909190505061151a565b005b610926600480803573ffffffffffffffffffffffffffffffffffffffff1690602001909190505061166f565b005b341561093357600080fd5b61093b611966565b604051808273ffffffffffffffffffffffffffffffffffffffff1673ffffffffffffffffffffffffffffffffffffffff16815260200191505060405180910390f35b6000806000806000803395506109923361198c565b15151561099e57600080fd5b6109a7866112d0565b15156109b257600080fd5b6000341115156109c157600080fd5b3494506109e06007546109d26113da565b6119c890919063ffffffff16565b93506109fc6109ed610c7b565b866119e190919063ffffffff16565b925083831115610a2657839250610a23610a14610c7b565b85611a1c90919063ffffffff16565b94505b610a3b83600754611a3790919063ffffffff16565b600781905550610a4b8684611a55565b9150610aa285600a60008573ffffffffffffffffffffffffffffffffffffffff1673ffffffffffffffffffffffffffffffffffffffff16815260200190815260200160002060020154611a3790919063ffffffff16565b600a60008473ffffffffffffffffffffffffffffffffffffffff1673ffffffffffffffffffffffffffffffffffffffff168152602001908152602001600020600201819055507fcdfc4e3e1859b1cbce45a94ca7708e6dc262c0a23932b5a4fcc848ae7ddf1f8686838786604051808573ffffffffffffffffffffffffffffffffffffffff1673ffffffffffffffffffffffffffffffffffffffff1681526020018473ffffffffffffffffffffffffffffffffffffffff1673ffffffffffffffffffffffffffffffffffffffff16815260200183815260200182815260200194505050505060405180910390a1610b9885611c3f565b610bab85346119c890919063ffffffff16565b90506000811115610c62573373ffffffffffffffffffffffffffffffffffffffff166108fc829081150290604051600060405180830381858888f193505050501515610bf657600080fd5b7f72a0296e2b81c7809ebf048e7cc0262ce2026fa94cae17275b829cc7607861df8133604051808381526020018273ffffffffffffffffffffffffffffffffffffffff1673ffffffffffffffffffffffffffffffffffffffff1681526020019250505060405180910390a15b505050505050565b600062127500905090565b60125481565b60006a1dc74be914d16aa40000006007541015610c9c57610e109050610cff565b6a43d42ce83da41d920000006007541015610cbb57610d7a9050610cff565b6a7152e0e1abab2b290000006007541015610cda57610ce49050610cff565b6aa6ad48e3464d0a398000006007541015610cf957610c999050610cff565b610bb890505b90565b60065481565b6000809054906101000a900473ffffffffffffffffffffffffffffffffffffffff1673ffffffffffffffffffffffffffffffffffffffff163373ffffffffffffffffffffffffffffffffffffffff16141515610d6357600080fd5b80600260006101000a81548173ffffffffffffffffffffffffffffffffffffffff021916908373ffffffffffffffffffffffffffffffffffffffff16021790555050565b600960009054906101000a900460ff16151515610dc357600080fd5b6000809054906101000a900473ffffffffffffffffffffffffffffffffffffffff1673ffffffffffffffffffffffffffffffffffffffff163373ffffffffffffffffffffffffffffffffffffffff16141515610e1e57600080fd5b610e266114f0565b1515610e3157600080fd5b610e39611ca4565b7f6823b073d48d6e3a7d385eeb601452d680e74bb46afe3255a7d778f3a9b1768160405160405180910390a16001600960006101000a81548160ff021916908315150217905550565b600160009054906101000a900473ffffffffffffffffffffffffffffffffffffffff1681565b60075481565b60115481565b60085481565b6000600a60008373ffffffffffffffffffffffffffffffffffffffff1673ffffffffffffffffffffffffffffffffffffffff168152602001908152602001600020600101549050919050565b60055481565b600c60009054906101000a900473ffffffffffffffffffffffffffffffffffffffff1681565b6000806000806000600260009054906101000a900473ffffffffffffffffffffffffffffffffffffffff1673ffffffffffffffffffffffffffffffffffffffff163373ffffffffffffffffffffffffffffffffffffffff16141515610f9657600080fd5b610f9f876112d0565b1515610faa57600080fd5b610fc6600754610fb86113da565b6119c890919063ffffffff16565b9450859350600084111515610fda57600080fd5b610ff4610fe5611419565b876119e190919063ffffffff16565b92508483111561101e5784925061101b61100c611419565b86611a1c90919063ffffffff16565b93505b61103383600754611a3790919063ffffffff16565b6007819055506110438784611a55565b915061109a84600a60008573ffffffffffffffffffffffffffffffffffffffff1673ffffffffffffffffffffffffffffffffffffffff16815260200190815260200160002060030154611a3790919063ffffffff16565b600a60008473ffffffffffffffffffffffffffffffffffffffff1673ffffffffffffffffffffffffffffffffffffffff168152602001908152602001600020600301819055507f72574db39ae077b88bfb9ade7cde5aba9b0221eb87be281aa6ad03a2f1126d6487838686604051808573ffffffffffffffffffffffffffffffffffffffff1673ffffffffffffffffffffffffffffffffffffffff1681526020018473ffffffffffffffffffffffffffffffffffffffff1673ffffffffffffffffffffffffffffffffffffffff16815260200183815260200182815260200194505050505060405180910390a161119a84876119c890919063ffffffff16565b90506000811115611211577f622fa4df3e6553698b0ef74edd2997b2b6aab68ec26f7c9d7737528b4a9afca68188604051808381526020018273ffffffffffffffffffffffffffffffffffffffff1673ffffffffffffffffffffffffffffffffffffffff1681526020019250505060405180910390a15b50505050505050565b600960009054906101000a900460ff1681565b6000809054906101000a900473ffffffffffffffffffffffffffffffffffffffff1681565b600f5481565b600b60009054906101000a900473ffffffffffffffffffffffffffffffffffffffff1681565b60135481565b600d60009054906101000a900473ffffffffffffffffffffffffffffffffffffffff1681565b600460009054906101000a900473ffffffffffffffffffffffffffffffffffffffff1681565b60008060008060055442101580156112ea57506006544211155b92506112f4610c7b565b6112fc6113da565b036007541115915060008573ffffffffffffffffffffffffffffffffffffffff161415905082801561132b5750815b80156113345750805b9350505050919050565b6000809054906101000a900473ffffffffffffffffffffffffffffffffffffffff1673ffffffffffffffffffffffffffffffffffffffff163373ffffffffffffffffffffffffffffffffffffffff1614151561139957600080fd5b806008819055507fc63bd74898cadf78312061244adbc47c53d5a34182e4d7090a2c37e6964ad2c5816040518082815260200191505060405180910390a150565b60006ad84ec767be54bbf5800000905090565b600e60009054906101000a900473ffffffffffffffffffffffffffffffffffffffff1681565b60105481565b60006114626402540be400611454612710611446600854611438610c7b565b6119e190919063ffffffff16565b611a1c90919063ffffffff16565b6119e190919063ffffffff16565b905090565b600a6020528060005260406000206000915090508060000160009054906101000a900473ffffffffffffffffffffffffffffffffffffffff16908060010154908060020154908060030154908060040160009054906101000a900460ff16905085565b600260009054906101000a900473ffffffffffffffffffffffffffffffffffffffff1681565b60006114fa610c7b565b6115026113da565b0360075410158061151557506006544210155b905090565b6000809054906101000a900473ffffffffffffffffffffffffffffffffffffffff1673ffffffffffffffffffffffffffffffffffffffff163373ffffffffffffffffffffffffffffffffffffffff1614151561157557600080fd5b600073ffffffffffffffffffffffffffffffffffffffff168173ffffffffffffffffffffffffffffffffffffffff16141515156115b157600080fd5b8073ffffffffffffffffffffffffffffffffffffffff166000809054906101000a900473ffffffffffffffffffffffffffffffffffffffff1673ffffffffffffffffffffffffffffffffffffffff167f8be0079c531659141344cd1fd0a4f28419497f9722a3daafe3b4186f6b6457e060405160405180910390a3806000806101000a81548173ffffffffffffffffffffffffffffffffffffffff021916908373ffffffffffffffffffffffffffffffffffffffff16021790555050565b60008060009054906101000a900473ffffffffffffffffffffffffffffffffffffffff1673ffffffffffffffffffffffffffffffffffffffff163373ffffffffffffffffffffffffffffffffffffffff161415156116cc57600080fd5b600a60008373ffffffffffffffffffffffffffffffffffffffff1673ffffffffffffffffffffffffffffffffffffffff168152602001908152602001600020600201543414151561171c57600080fd5b600a60008373ffffffffffffffffffffffffffffffffffffffff1673ffffffffffffffffffffffffffffffffffffffff1681526020019081526020016000206001015490506000600a60008473ffffffffffffffffffffffffffffffffffffffff1673ffffffffffffffffffffffffffffffffffffffff168152602001908152602001600020600101819055506000600a60008473ffffffffffffffffffffffffffffffffffffffff1673ffffffffffffffffffffffffffffffffffffffff168152602001908152602001600020600201819055506000600a60008473ffffffffffffffffffffffffffffffffffffffff1673ffffffffffffffffffffffffffffffffffffffff16815260200190815260200160002060030181905550600360009054906101000a900473ffffffffffffffffffffffffffffffffffffffff1673ffffffffffffffffffffffffffffffffffffffff1663410085df83836000604051602001526040518363ffffffff167c0100000000000000000000000000000000000000000000000000000000028152600401808373ffffffffffffffffffffffffffffffffffffffff1673ffffffffffffffffffffffffffffffffffffffff16815260200182815260200192505050602060405180830381600087803b151561190657600080fd5b6102c65a03f1151561191757600080fd5b50505060405180519050508173ffffffffffffffffffffffffffffffffffffffff166108fc349081150290604051600060405180830381858888f19350505050151561196257600080fd5b5050565b600360009054906101000a900473ffffffffffffffffffffffffffffffffffffffff1681565b60008060008373ffffffffffffffffffffffffffffffffffffffff1614156119b757600091506119c2565b823b90506000811191505b50919050565b60008282111515156119d657fe5b818303905092915050565b60008060008414156119f65760009150611a15565b8284029050828482811515611a0757fe5b04141515611a1157fe5b8091505b5092915050565b6000808284811515611a2a57fe5b0490508091505092915050565b6000808284019050838110151515611a4b57fe5b8091505092915050565b60006001600a60008573ffffffffffffffffffffffffffffffffffffffff1673ffffffffffffffffffffffffffffffffffffffff16815260200190815260200160002060040160006101000a81548160ff021916908315150217905550611b0782600a60008673ffffffffffffffffffffffffffffffffffffffff1673ffffffffffffffffffffffffffffffffffffffff16815260200190815260200160002060010154611a3790919063ffffffff16565b600a60008573ffffffffffffffffffffffffffffffffffffffff1673ffffffffffffffffffffffffffffffffffffffff16815260200190815260200160002060010181905550600360009054906101000a900473ffffffffffffffffffffffffffffffffffffffff1673ffffffffffffffffffffffffffffffffffffffff166340c10f1984846000604051602001526040518363ffffffff167c0100000000000000000000000000000000000000000000000000000000028152600401808373ffffffffffffffffffffffffffffffffffffffff1673ffffffffffffffffffffffffffffffffffffffff16815260200182815260200192505050602060405180830381600087803b1515611c1a57600080fd5b6102c65a03f11515611c2b57600080fd5b505050604051805190505082905092915050565b600160009054906101000a900473ffffffffffffffffffffffffffffffffffffffff1673ffffffffffffffffffffffffffffffffffffffff166108fc829081150290604051600060405180830381858888f193505050501515611ca157600080fd5b50565b60008060008060008060006b033b2e3c9fd0803ce80000009650600360009054906101000a900473ffffffffffffffffffffffffffffffffffffffff1673ffffffffffffffffffffffffffffffffffffffff166318160ddd6000604051602001526040518163ffffffff167c0100000000000000000000000000000000000000000000000000000000028152600401602060405180830381600087803b1515611d4c57600080fd5b6102c65a03f11515611d5d57600080fd5b505050604051805190509550611d9087611d82612710896119e190919063ffffffff16565b611a1c90919063ffffffff16565b9450600f54851015611dcc57611dc585611db7600f54601354611a3790919063ffffffff16565b6119c890919063ffffffff16565b6013819055505b611dd887601054612373565b9350611de687601154612373565b9250611df487601254612373565b9150611e0287601354612373565b9050600360009054906101000a900473ffffffffffffffffffffffffffffffffffffffff1673ffffffffffffffffffffffffffffffffffffffff166340c10f19600b60009054906101000a900473ffffffffffffffffffffffffffffffffffffffff16866000604051602001526040518363ffffffff167c0100000000000000000000000000000000000000000000000000000000028152600401808373ffffffffffffffffffffffffffffffffffffffff1673ffffffffffffffffffffffffffffffffffffffff16815260200182815260200192505050602060405180830381600087803b1515611ef357600080fd5b6102c65a03f11515611f0457600080fd5b5050506040518051905050600360009054906101000a900473ffffffffffffffffffffffffffffffffffffffff1673ffffffffffffffffffffffffffffffffffffffff166340c10f19600c60009054906101000a900473ffffffffffffffffffffffffffffffffffffffff16856000604051602001526040518363ffffffff167c0100000000000000000000000000000000000000000000000000000000028152600401808373ffffffffffffffffffffffffffffffffffffffff1673ffffffffffffffffffffffffffffffffffffffff16815260200182815260200192505050602060405180830381600087803b1515611ffe57600080fd5b6102c65a03f1151561200f57600080fd5b5050506040518051905050600360009054906101000a900473ffffffffffffffffffffffffffffffffffffffff1673ffffffffffffffffffffffffffffffffffffffff166340c10f19600d60009054906101000a900473ffffffffffffffffffffffffffffffffffffffff16846000604051602001526040518363ffffffff167c0100000000000000000000000000000000000000000000000000000000028152600401808373ffffffffffffffffffffffffffffffffffffffff1673ffffffffffffffffffffffffffffffffffffffff16815260200182815260200192505050602060405180830381600087803b151561210957600080fd5b6102c65a03f1151561211a57600080fd5b5050506040518051905050600360009054906101000a900473ffffffffffffffffffffffffffffffffffffffff1673ffffffffffffffffffffffffffffffffffffffff166340c10f19600e60009054906101000a900473ffffffffffffffffffffffffffffffffffffffff16836000604051602001526040518363ffffffff167c0100000000000000000000000000000000000000000000000000000000028152600401808373ffffffffffffffffffffffffffffffffffffffff1673ffffffffffffffffffffffffffffffffffffffff16815260200182815260200192505050602060405180830381600087803b151561221457600080fd5b6102c65a03f1151561222557600080fd5b5050506040518051905050600360009054906101000a900473ffffffffffffffffffffffffffffffffffffffff1673ffffffffffffffffffffffffffffffffffffffff16633f4ba83a6040518163ffffffff167c0100000000000000000000000000000000000000000000000000000000028152600401600060405180830381600087803b15156122b557600080fd5b6102c65a03f115156122c657600080fd5b505050600360009054906101000a900473ffffffffffffffffffffffffffffffffffffffff1673ffffffffffffffffffffffffffffffffffffffff16632d102d1d6040518163ffffffff167c0100000000000000000000000000000000000000000000000000000000028152600401600060405180830381600087803b151561234e57600080fd5b6102c65a03f1151561235f57600080fd5b50505061236a6123a4565b50505050505050565b600061239c61271061238e84866119e190919063ffffffff16565b611a1c90919063ffffffff16565b905092915050565b600360009054906101000a900473ffffffffffffffffffffffffffffffffffffffff1673ffffffffffffffffffffffffffffffffffffffff1663f2fde38b600460009054906101000a900473ffffffffffffffffffffffffffffffffffffffff166040518263ffffffff167c0100000000000000000000000000000000000000000000000000000000028152600401808273ffffffffffffffffffffffffffffffffffffffff1673ffffffffffffffffffffffffffffffffffffffff168152602001915050600060405180830381600087803b151561248257600080fd5b6102c65a03f1151561249357600080fd5b5050505600a165627a7a72305820a12c57c3c77e85834f2d29ed80d793ccdadea42330ce1190905d09f452b5bdf00029",
  "source": "pragma solidity ^0.4.11;\n\nimport './Tokensale.sol';\n\ncontract LeapTokensale is Tokensale {\n    function LeapTokensale(\n        uint256 _startTime,\n        address _token,\n        address _placeholder,\n        address _wallet,\n        address _bounty,\n        address _team,\n        address _ecosystem,\n        address _reserve\n    ) Tokensale(\n        _startTime,\n        _token,\n        _placeholder,\n        _wallet\n        ) {\n\n        bounty = _bounty;\n        team = _team;\n        ecosystem = _ecosystem;\n        reserve = _reserve;\n    }\n\n    function hardcap() public constant returns (uint256) {\n        return 261500000e18;\n    }\n    function duration() public constant returns (uint256) {\n        return 14 days;\n    }\n\n    address public bounty;\n    address public team;\n    address public ecosystem;\n    address public reserve;\n\n    uint256 public contributorsBasePoints = 4000;\n    uint256 public bountyBasePoints = 1000;\n    uint256 public teamBasePoints = 1500;\n    uint256 public ecosystemBasePoints = 1500;\n    uint256 public reserveBasePoints = 2000;\n\n    function finalization() internal {\n        uint256 totalCoins = 1000000000e18;\n        uint256 contributorsCoins = token.totalSupply();\n\n        uint256 contributorsBasePointsCalculated = contributorsCoins.mul(10000).div(totalCoins);\n\n        if(contributorsBasePointsCalculated < contributorsBasePoints) {\n            reserveBasePoints = reserveBasePoints.add(contributorsBasePoints).sub(contributorsBasePointsCalculated);\n        }\n\n        uint256 toBounty = calculatePortion(totalCoins, bountyBasePoints);\n        uint256 toTeam = calculatePortion(totalCoins, teamBasePoints);\n        uint256 toEcosystem = calculatePortion(totalCoins, ecosystemBasePoints);\n        uint256 toReserve = calculatePortion(totalCoins, reserveBasePoints);\n\n        token.mint(bounty, toBounty);\n        token.mint(team, toTeam);\n        token.mint(ecosystem, toEcosystem);\n        token.mint(reserve, toReserve);\n\n        token.unpause();\n        token.finishRefunding();\n\n        super.finalization();\n    }\n\n    function calculatePortion(uint256 coins, uint256 basePoints) internal returns (uint256) {\n        return coins.mul(basePoints).div(10000);\n    }\n\n    function forwardFunds(uint256 amount) internal {\n        wallet.transfer(amount);\n    }\n\n    function rate() public constant returns (uint256) {\n        if(leapRaised < 36000000e18) {\n            return 3600;\n        } else if(leapRaised < 82000000e18) {\n            return 3450;\n        } else if(leapRaised < 137000000e18) {\n            return 3300;\n        } else if(leapRaised < 201500000e18) {\n            return 3225;\n        } else {\n            return 3000;\n        }\n    }\n}",
  "sourcePath": "/dapp/leap/contracts/LeapTokensale.sol",
  "compiler": {
    "name": "solc",
    "version": "0.4.18+commit.9cf6e910.Emscripten.clang"
  },
  "schemaVersion": "1.0.1",
  "updatedAt": "2017-12-13T19:05:39.719Z"
}