{
  "contractName": "Presale",
  "abi": [
    {
      "constant": true,
      "inputs": [],
      "name": "wallet2",
      "outputs": [
        {
          "name": "",
          "type": "address"
        }
      ],
      "payable": false,
      "stateMutability": "view",
      "type": "function"
    },
    {
      "constant": true,
      "inputs": [
        {
          "name": "_weiAmount",
          "type": "uint256"
        }
      ],
      "name": "whaleBonus",
      "outputs": [
        {
          "name": "",
          "type": "uint256"
        }
      ],
      "payable": false,
      "stateMutability": "view",
      "type": "function"
    },
    {
      "constant": true,
      "inputs": [],
      "name": "wallet1",
      "outputs": [
        {
          "name": "",
          "type": "address"
        }
      ],
      "payable": false,
      "stateMutability": "view",
      "type": "function"
    },
    {
      "constant": true,
      "inputs": [],
      "name": "rate",
      "outputs": [
        {
          "name": "",
          "type": "uint256"
        }
      ],
      "payable": false,
      "stateMutability": "view",
      "type": "function"
    },
    {
      "constant": true,
      "inputs": [],
      "name": "endTime",
      "outputs": [
        {
          "name": "",
          "type": "uint256"
        }
      ],
      "payable": false,
      "stateMutability": "view",
      "type": "function"
    },
    {
      "constant": true,
      "inputs": [],
      "name": "cap",
      "outputs": [
        {
          "name": "",
          "type": "uint256"
        }
      ],
      "payable": false,
      "stateMutability": "view",
      "type": "function"
    },
    {
      "constant": true,
      "inputs": [],
      "name": "weiRaised",
      "outputs": [
        {
          "name": "",
          "type": "uint256"
        }
      ],
      "payable": false,
      "stateMutability": "view",
      "type": "function"
    },
    {
      "constant": true,
      "inputs": [
        {
          "name": "_weiAmount",
          "type": "uint256"
        },
        {
          "name": "_weiRaised",
          "type": "uint256"
        }
      ],
      "name": "stageBonus",
      "outputs": [
        {
          "name": "",
          "type": "uint256"
        }
      ],
      "payable": false,
      "stateMutability": "view",
      "type": "function"
    },
    {
      "constant": true,
      "inputs": [],
      "name": "startTime",
      "outputs": [
        {
          "name": "",
          "type": "uint256"
        }
      ],
      "payable": false,
      "stateMutability": "view",
      "type": "function"
    },
    {
      "constant": true,
      "inputs": [],
      "name": "owner",
      "outputs": [
        {
          "name": "",
          "type": "address"
        }
      ],
      "payable": false,
      "stateMutability": "view",
      "type": "function"
    },
    {
      "constant": false,
      "inputs": [
        {
          "name": "beneficiary",
          "type": "address"
        }
      ],
      "name": "buyTokens",
      "outputs": [],
      "payable": true,
      "stateMutability": "payable",
      "type": "function"
    },
    {
      "constant": true,
      "inputs": [],
      "name": "hasEnded",
      "outputs": [
        {
          "name": "",
          "type": "bool"
        }
      ],
      "payable": false,
      "stateMutability": "view",
      "type": "function"
    },
    {
      "constant": false,
      "inputs": [
        {
          "name": "newOwner",
          "type": "address"
        }
      ],
      "name": "transferOwnership",
      "outputs": [],
      "payable": false,
      "stateMutability": "nonpayable",
      "type": "function"
    },
    {
      "constant": true,
      "inputs": [],
      "name": "token",
      "outputs": [
        {
          "name": "",
          "type": "address"
        }
      ],
      "payable": false,
      "stateMutability": "view",
      "type": "function"
    },
    {
      "payable": true,
      "stateMutability": "payable",
      "type": "fallback"
    },
    {
      "anonymous": false,
      "inputs": [
        {
          "indexed": true,
          "name": "purchaser",
          "type": "address"
        },
        {
          "indexed": true,
          "name": "beneficiary",
          "type": "address"
        },
        {
          "indexed": false,
          "name": "value",
          "type": "uint256"
        },
        {
          "indexed": false,
          "name": "amount",
          "type": "uint256"
        }
      ],
      "name": "TokenPurchase",
      "type": "event"
    },
    {
      "anonymous": false,
      "inputs": [
        {
          "indexed": true,
          "name": "previousOwner",
          "type": "address"
        },
        {
          "indexed": true,
          "name": "newOwner",
          "type": "address"
        }
      ],
      "name": "OwnershipTransferred",
      "type": "event"
    }
  ],
  "bytecode": "0x6060604052635a5a9d80600355635a67cc80600455610bb860055569033d6a2749203490000060065573f869e31a013a7fd78eecc67383812dea9184957e600760006101000a81548173ffffffffffffffffffffffffffffffffffffffff021916908373ffffffffffffffffffffffffffffffffffffffff160217905550738bda06b0df609b02f59a3d4794ac42403de574aa600860006101000a81548173ffffffffffffffffffffffffffffffffffffffff021916908373ffffffffffffffffffffffffffffffffffffffff160217905550336000806101000a81548173ffffffffffffffffffffffffffffffffffffffff021916908373ffffffffffffffffffffffffffffffffffffffff160217905550610b48806101216000396000f3006060604052600436106100d0576000357c0100000000000000000000000000000000000000000000000000000000900463ffffffff1680630b8d0a28146100db5780631792ef1d146101305780631a026c96146101675780632c4e722e146101bc5780633197cbb6146101e5578063355274ea1461020e5780634042b66f146102375780635f51fb0e1461026057806378e97925146102a05780638da5cb5b146102c9578063ec8ac4d81461031e578063ecb70fb71461034c578063f2fde38b14610379578063fc0c546a146103b2575b6100d933610407565b005b34156100e657600080fd5b6100ee610608565b604051808273ffffffffffffffffffffffffffffffffffffffff1673ffffffffffffffffffffffffffffffffffffffff16815260200191505060405180910390f35b341561013b57600080fd5b610151600480803590602001909190505061062e565b6040518082815260200191505060405180910390f35b341561017257600080fd5b61017a6106d9565b604051808273ffffffffffffffffffffffffffffffffffffffff1673ffffffffffffffffffffffffffffffffffffffff16815260200191505060405180910390f35b34156101c757600080fd5b6101cf6106ff565b6040518082815260200191505060405180910390f35b34156101f057600080fd5b6101f8610705565b6040518082815260200191505060405180910390f35b341561021957600080fd5b61022161070b565b6040518082815260200191505060405180910390f35b341561024257600080fd5b61024a610711565b6040518082815260200191505060405180910390f35b341561026b57600080fd5b61028a6004808035906020019091908035906020019091905050610717565b6040518082815260200191505060405180910390f35b34156102ab57600080fd5b6102b3610783565b6040518082815260200191505060405180910390f35b34156102d457600080fd5b6102dc610789565b604051808273ffffffffffffffffffffffffffffffffffffffff1673ffffffffffffffffffffffffffffffffffffffff16815260200191505060405180910390f35b61034a600480803573ffffffffffffffffffffffffffffffffffffffff16906020019091905050610407565b005b341561035757600080fd5b61035f6107ae565b604051808215151515815260200191505060405180910390f35b341561038457600080fd5b6103b0600480803573ffffffffffffffffffffffffffffffffffffffff169060200190919050506107c9565b005b34156103bd57600080fd5b6103c561091e565b604051808273ffffffffffffffffffffffffffffffffffffffff1673ffffffffffffffffffffffffffffffffffffffff16815260200191505060405180910390f35b600080600073ffffffffffffffffffffffffffffffffffffffff168373ffffffffffffffffffffffffffffffffffffffff161415151561044657600080fd5b61044e610944565b151561045957600080fd5b3491506104658261062e565b61047183600254610717565b6104866005548561099e90919063ffffffff16565b0101905061049f826002546109d990919063ffffffff16565b600281905550600160009054906101000a900473ffffffffffffffffffffffffffffffffffffffff1673ffffffffffffffffffffffffffffffffffffffff166340c10f1984836000604051602001526040518363ffffffff167c0100000000000000000000000000000000000000000000000000000000028152600401808373ffffffffffffffffffffffffffffffffffffffff1673ffffffffffffffffffffffffffffffffffffffff16815260200182815260200192505050602060405180830381600087803b151561057257600080fd5b6102c65a03f1151561058357600080fd5b50505060405180519050508273ffffffffffffffffffffffffffffffffffffffff163373ffffffffffffffffffffffffffffffffffffffff167f623b3804fa71d67900d064613da8f94b9617215ee90799290593e1745087ad188484604051808381526020018281526020019250505060405180910390a36106036109f7565b505050565b600860009054906101000a900473ffffffffffffffffffffffffffffffffffffffff1681565b60008060006101f48410151561064757604b91506106a7565b60fa8410151561065a57603291506106a6565b60648410151561066d57601e91506106a5565b60328410151561068057601491506106a4565b60198410151561069357600a91506106a3565b600a841015156106a257600591505b5b5b5b5b5b6106cd60646106bf848761099e90919063ffffffff16565b610ae890919063ffffffff16565b90508092505050919050565b600760009054906101000a900473ffffffffffffffffffffffffffffffffffffffff1681565b60055481565b60045481565b60065481565b60025481565b6000806000806000682e141ea081ca080000935060fa925061138891505b838610151561074d5783860395508282039150610735565b610774612710610766858a61099e90919063ffffffff16565b610ae890919063ffffffff16565b90508094505050505092915050565b60035481565b6000809054906101000a900473ffffffffffffffffffffffffffffffffffffffff1681565b60006004544211806107c4575060065460025410155b905090565b6000809054906101000a900473ffffffffffffffffffffffffffffffffffffffff1673ffffffffffffffffffffffffffffffffffffffff163373ffffffffffffffffffffffffffffffffffffffff1614151561082457600080fd5b600073ffffffffffffffffffffffffffffffffffffffff168173ffffffffffffffffffffffffffffffffffffffff161415151561086057600080fd5b8073ffffffffffffffffffffffffffffffffffffffff166000809054906101000a900473ffffffffffffffffffffffffffffffffffffffff1673ffffffffffffffffffffffffffffffffffffffff167f8be0079c531659141344cd1fd0a4f28419497f9722a3daafe3b4186f6b6457e060405160405180910390a3806000806101000a81548173ffffffffffffffffffffffffffffffffffffffff021916908373ffffffffffffffffffffffffffffffffffffffff16021790555050565b600160009054906101000a900473ffffffffffffffffffffffffffffffffffffffff1681565b600080600080600354421015801561095e57506004544211155b92506000341415915060065461097f346002546109d990919063ffffffff16565b1115905082801561098d5750815b80156109965750805b935050505090565b60008060008414156109b357600091506109d2565b82840290508284828115156109c457fe5b041415156109ce57fe5b8091505b5092915050565b60008082840190508381101515156109ed57fe5b8091505092915050565b6000610a0d600234610ae890919063ffffffff16565b9050600760009054906101000a900473ffffffffffffffffffffffffffffffffffffffff1673ffffffffffffffffffffffffffffffffffffffff166108fc829081150290604051600060405180830381858888f193505050501515610a7157600080fd5b600860009054906101000a900473ffffffffffffffffffffffffffffffffffffffff1673ffffffffffffffffffffffffffffffffffffffff166108fc610ac08334610b0390919063ffffffff16565b9081150290604051600060405180830381858888f193505050501515610ae557600080fd5b50565b6000808284811515610af657fe5b0490508091505092915050565b6000828211151515610b1157fe5b8183039050929150505600a165627a7a72305820be72688d944d64703654755b112bbb2e1ca01e5b922889f0262e642b8687a87d0029",
  "source": "pragma solidity ^0.4.11;\n\nimport 'zeppelin-solidity/contracts/math/SafeMath.sol';\nimport 'zeppelin-solidity/contracts/ownership/Ownable.sol';\nimport './PresaleLEAP.sol';\n\ncontract Presale is Ownable {\n    using SafeMath for uint256;\n\n    PresaleLEAP public token;\n\n    uint256 public weiRaised;\n\n    uint256 public startTime = 1515888000;\n    uint256 public endTime = 1516752000;\n    uint256 public rate = 3000;\n    uint256 public cap = 15300 ether;\n\n    address public wallet1 = 0xF869E31a013a7Fd78EEcc67383812DEA9184957e;\n    address public wallet2 = 0x8BDa06b0Df609B02f59a3D4794ac42403de574aA;\n\n    event TokenPurchase(address indexed purchaser, address indexed beneficiary, uint256 value, uint256 amount);\n\n    function () external payable {\n        buyTokens(msg.sender);\n    }\n\n    function buyTokens(address beneficiary) public payable\n    {\n        require(beneficiary != address(0));\n        require(validPurchase());\n\n        uint256 weiAmount = msg.value;\n\n        uint256 tokens = weiAmount.mul(rate) +\n                        stageBonus(weiAmount, weiRaised) +\n                        whaleBonus(weiAmount);\n\n        weiRaised = weiRaised.add(weiAmount);\n\n        token.mint(beneficiary, tokens);\n\n        TokenPurchase(msg.sender, beneficiary, weiAmount, tokens);\n\n        forwardFunds();\n    }\n\n    function stageBonus(uint256 _weiAmount, uint256 _weiRaised)\n        public constant returns (uint256)\n    {\n        uint256 weiStep = 850e18;\n        uint256 bonusStepBasePoints = 250;\n        uint256 bonusBasePoints = 5000;\n\n        while(_weiRaised >= weiStep) {\n            _weiRaised -= weiStep;\n            bonusBasePoints -= bonusStepBasePoints;\n        }\n\n        uint256 stageBonusAmount = _weiAmount.mul(bonusStepBasePoints).div(10000);\n\n        return stageBonusAmount;\n    }\n\n    function whaleBonus(uint256 _weiAmount)\n        public constant returns (uint256)\n    {\n        uint256 bonusPercent;\n        uint256 whaleBonusAmount;\n    \n        if(_weiAmount >= 500) {\n            bonusPercent = 75;\n        } else if(_weiAmount >= 250) {\n            bonusPercent = 50;\n        } else if(_weiAmount >= 100) {\n            bonusPercent = 30;\n        } else if(_weiAmount >= 50) {\n            bonusPercent = 20;\n        } else if(_weiAmount >= 25) {\n            bonusPercent = 10;\n        } else if(_weiAmount >= 10) {\n            bonusPercent = 5;\n        }\n\n        whaleBonusAmount = _weiAmount.mul(bonusPercent).div(100);\n\n        return whaleBonusAmount;\n    }\n\n    function forwardFunds() internal\n    {\n        uint256 half = msg.value.div(2);\n        wallet1.transfer(half);\n        wallet2.transfer(msg.value.sub(half));\n    }\n\n    function validPurchase() internal constant returns (bool)\n    {\n        bool withinPeriod = now >= startTime && now <= endTime;\n        bool nonZeroPurchase = msg.value != 0;\n        bool withinCap = weiRaised.add(msg.value) <= cap;\n\n        return withinPeriod && nonZeroPurchase && withinCap;\n    }\n\n    function hasEnded() public constant returns (bool)\n    {\n        return now > endTime || weiRaised >= cap;\n    }\n}",
  "sourcePath": "/home/sevenflash/apps/blockchain/devchain/dapp/leap/contracts/Presale.sol",
  "compiler": {
    "name": "solc",
    "version": "0.4.18+commit.9cf6e910.Emscripten.clang"
  },
  "schemaVersion": "1.0.1",
  "updatedAt": "2018-01-12T00:03:26.668Z"
}