{
  "contractName": "TokensaleBitcoinFake",
  "abi": [
    {
      "constant": false,
      "inputs": [
        {
          "name": "beneficiary",
          "type": "address"
        },
        {
          "name": "btcAmount",
          "type": "uint256"
        }
      ],
      "name": "buyCoinsBTC",
      "outputs": [],
      "payable": false,
      "stateMutability": "nonpayable",
      "type": "function"
    },
    {
      "constant": false,
      "inputs": [
        {
          "name": "_proxy",
          "type": "address"
        }
      ],
      "name": "TokensaleFake",
      "outputs": [],
      "payable": false,
      "stateMutability": "nonpayable",
      "type": "function"
    },
    {
      "constant": true,
      "inputs": [],
      "name": "lastBeneficiary",
      "outputs": [
        {
          "name": "",
          "type": "address"
        }
      ],
      "payable": false,
      "stateMutability": "view",
      "type": "function"
    },
    {
      "constant": true,
      "inputs": [],
      "name": "lastBtcAmount",
      "outputs": [
        {
          "name": "",
          "type": "uint256"
        }
      ],
      "payable": false,
      "stateMutability": "view",
      "type": "function"
    }
  ],
  "bytecode": "0x6060604052341561000f57600080fd5b6102a28061001e6000396000f300606060405260043610610062576000357c0100000000000000000000000000000000000000000000000000000000900463ffffffff1680638cf292e414610067578063ce7f9ab2146100a9578063da1af333146100e2578063fe437b2d14610137575b600080fd5b341561007257600080fd5b6100a7600480803573ffffffffffffffffffffffffffffffffffffffff16906020019091908035906020019091905050610160565b005b34156100b457600080fd5b6100e0600480803573ffffffffffffffffffffffffffffffffffffffff16906020019091905050610207565b005b34156100ed57600080fd5b6100f561024b565b604051808273ffffffffffffffffffffffffffffffffffffffff1673ffffffffffffffffffffffffffffffffffffffff16815260200191505060405180910390f35b341561014257600080fd5b61014a610270565b6040518082815260200191505060405180910390f35b3373ffffffffffffffffffffffffffffffffffffffff16600260009054906101000a900473ffffffffffffffffffffffffffffffffffffffff1673ffffffffffffffffffffffffffffffffffffffff161415156101bc57600080fd5b816000806101000a81548173ffffffffffffffffffffffffffffffffffffffff021916908373ffffffffffffffffffffffffffffffffffffffff160217905550806001819055505050565b80600260006101000a81548173ffffffffffffffffffffffffffffffffffffffff021916908373ffffffffffffffffffffffffffffffffffffffff16021790555050565b6000809054906101000a900473ffffffffffffffffffffffffffffffffffffffff1681565b600154815600a165627a7a723058203b05bc8dc9de10501573fcc64c13f22c4dd27550c431ad3bda5966ea862e098b0029",
  "source": "pragma solidity ^0.4.11;\n\ncontract TokensaleBitcoinFake {\n    address public lastBeneficiary;\n    uint256 public lastBtcAmount;\n\n    address proxy;\n\n    function TokensaleFake(address _proxy) {\n        proxy = _proxy;\n    }\n\n    function buyCoinsBTC(address beneficiary, uint256 btcAmount) public {\n        require(proxy == msg.sender);\n\n        lastBeneficiary = beneficiary;\n        lastBtcAmount = btcAmount;\n    }\n}\n",
  "sourcePath": "/dapp/leap/contracts/TokensaleBitcoinFake.sol",
  "compiler": {
    "name": "solc",
    "version": "0.4.18+commit.9cf6e910.Emscripten.clang"
  },
  "schemaVersion": "1.0.1",
  "updatedAt": "2017-12-13T19:05:39.725Z"
}