{
  "contractName": "Wallet",
  "abi": [
    {
      "constant": true,
      "inputs": [],
      "name": "total",
      "outputs": [
        {
          "name": "",
          "type": "uint256"
        }
      ],
      "payable": false,
      "stateMutability": "view",
      "type": "function"
    },
    {
      "constant": false,
      "inputs": [],
      "name": "withdraw",
      "outputs": [],
      "payable": false,
      "stateMutability": "nonpayable",
      "type": "function"
    },
    {
      "inputs": [
        {
          "name": "wallets",
          "type": "address[]"
        },
        {
          "name": "percentages",
          "type": "uint256[]"
        }
      ],
      "payable": false,
      "stateMutability": "nonpayable",
      "type": "constructor"
    },
    {
      "payable": true,
      "stateMutability": "payable",
      "type": "fallback"
    },
    {
      "anonymous": false,
      "inputs": [
        {
          "indexed": false,
          "name": "beneficiary",
          "type": "address"
        },
        {
          "indexed": false,
          "name": "amount",
          "type": "uint256"
        }
      ],
      "name": "FundsWithdrawn",
      "type": "event"
    }
  ],
  "bytecode": "0x6060604052341561000f57600080fd5b6040516103873803806103878339810160405280805182019190602001805182019190505060008151835114151561004657600080fd5b600090505b82518110156100d257818181518110151561006257fe5b90602001906020020151600080858481518110151561007d57fe5b9060200190602002015173ffffffffffffffffffffffffffffffffffffffff1673ffffffffffffffffffffffffffffffffffffffff16815260200190815260200160002081905550808060010191505061004b565b5050506102a3806100e46000396000f30060606040526004361061004c576000357c0100000000000000000000000000000000000000000000000000000000900463ffffffff1680632ddbd13a1461005e5780633ccfd60b14610087575b34600160008282540192505081905550005b341561006957600080fd5b61007161009c565b6040518082815260200191505060405180910390f35b341561009257600080fd5b61009a6100a2565b005b60015481565b60008060003392506000808473ffffffffffffffffffffffffffffffffffffffff1673ffffffffffffffffffffffffffffffffffffffff1681526020019081526020016000205491506000821115156100f757fe5b61011f60646101118460015461022190919063ffffffff16565b61025c90919063ffffffff16565b905060008111151561013057600080fd5b60008060008573ffffffffffffffffffffffffffffffffffffffff1673ffffffffffffffffffffffffffffffffffffffff168152602001908152602001600020819055508273ffffffffffffffffffffffffffffffffffffffff166108fc829081150290604051600060405180830381858888f1935050505015156101b157fe5b7feaff4b37086828766ad3268786972c0cd24259d4c87a80f9d3963a3c3d999b0d8382604051808373ffffffffffffffffffffffffffffffffffffffff1673ffffffffffffffffffffffffffffffffffffffff1681526020018281526020019250505060405180910390a1505050565b60008060008414156102365760009150610255565b828402905082848281151561024757fe5b0414151561025157fe5b8091505b5092915050565b600080828481151561026a57fe5b04905080915050929150505600a165627a7a7230582060583f07ffcd9019e322df08552fc6071a2cff5c596531b499fb5a4580187c560029",
  "source": "pragma solidity ^0.4.11;\n\nimport 'zeppelin-solidity/contracts/math/SafeMath.sol';\n\ncontract Wallet {\n    using SafeMath for uint256;\n\n    event FundsWithdrawn(address beneficiary, uint256 amount);\n\n    mapping(address => uint) departments;\n\n    uint256 public total;\n\n    function Wallet(address[] wallets, uint[] percentages) {\n        require(wallets.length == percentages.length);\n\n        for(uint i = 0; i < wallets.length; i++) {\n            departments[wallets[i]] = percentages[i];\n        }\n    }\n\n    function withdraw() external {\n        address department = msg.sender;\n\n        uint256 percentage = departments[department];\n        assert(percentage > 0);\n\n        uint256 amount = total.mul(percentage).div(100);\n        require(amount > 0);\n\n        departments[department] = 0;\n\n        assert(department.send(amount));\n\n        FundsWithdrawn(department, amount);\n    }\n\n    function() payable {\n        total += msg.value;\n    }\n}",
  "sourcePath": "/dapp/leap/contracts/Wallet.sol",
  "compiler": {
    "name": "solc",
    "version": "0.4.18+commit.9cf6e910.Emscripten.clang"
  },
  "schemaVersion": "1.0.1",
  "updatedAt": "2017-12-13T19:05:39.726Z"
}